:020000040800F2
:10000000E812002001010008793300087327000876
:10001000753200088D170008AD5700080000000079
:10002000000000000000000000000000694000081F
:100030003520000800000000DD3C00083D480008B5
:100040001B0100081B0100081B0100081B01000820
:100050001B0100081B0100081B0100081B01000810
:100060001B0100081B0100081B0100081B01000800
:100070001B0100081B0100081B0100081B010008F0
:100080001B0100081B0100081B0100081B010008E0
:100090001B0100081B0100081B0100081B010008D0
:1000A0001B0100081B0100081B0100081B010008C0
:1000B0001B0100081B0100081B0100081B010008B0
:1000C0001B0100081B0100081B0100081B010008A0
:1000D0001B01000835530008D55300081B01000818
:1000E0001B0100081B0100081B010008DFF80CD0F1
:1000F00000F00CFE0048004709620008E8120020EA
:100100000648804706480047FEE7FEE7FEE7FEE7B1
:10011000FEE7FEE7FEE7FEE7FEE7FEE745480008EC
:10012000ED00000838B5D0E90221491E01EB41017C
:1001300002EBC1014268C1EB011102EB81010268CF
:10014000C1EB011102EB8102D0E9043101EB410165
:1001500003EB81013023A1F5527191FBF3F4174DAC
:100160006C4302EBC41291FBF3F403FB14110092F5
:100170001A2902DB124B1A4400920C2291FBF2F373
:10018000104C6343009C04EBC313009391FBF2F308
:1001900002FB13110C4A08E0491E40F2A324535CF1
:1001A0006343009C04EBC31300930029F4DC014675
:1001B000684600F033FC009838BD00003F0C0F008B
:1001C0008051010067C20300F677000840EA01038E
:1001D0009B0703D009E008C9121F08C0042AFAD2FD
:1001E00003E011F8013B00F8013B521EF9D27047C1
:1001F000D2B201E000F8012B491EFBD27047002269
:10020000F6E710B513460A4604461946FFF7F0FF15
:10021000204610BD30B505462A460B4612F8010BA4
:1002200013F8014B08B1A042F8D01CB1002802D04D
:100230006D1CF1E7284630BD10B5044604E00B788C
:1002400000F8013B03B1491C521EF8D2204610BDF4
:10025000421C10F8011B0029FBD1801A704710B511
:10026000002200E0521C835C8C5CA34201D1002B75
:10027000F8D1D8B2E1B2401A10BD10B508E00A4674
:1002800002E0A34208D0521C1378002BF9D1401C85
:100290000478002CF3D1002010BD70B5064605F09F
:1002A00001FB046805460A220021304600F04AFCA2
:1002B0002C6070BDF0B480EA0102D40F4200B2EBB2
:1002C000410F02D20246084611464A0042D0C30DF1
:1002D000DDB2C1F3C752AD1A202D35DAC1F31601D4
:1002E00041F4000204B15242C5F1200602FA06F1BF
:1002F0002A411044B3EBD05F23D0C4B1012DA0EB51
:10030000C35009DCF0BC4FF0004202EAC352DBB23A
:1003100000F5000000F057BC400000F1807000EBD9
:10032000C350A0F1807040EAD170490009E049084B
:1003300041EAC071A0EBC35000F50000400800EB9B
:10034000C350F0BC00F036BC6142012202EB410117
:10035000001BF6E7F0BC704781F00041AAE780F08F
:100360000040A7E780EA010210B502F00043400018
:1003700022D04A001FD0010E01EB1261C0F35600DB
:10038000C2F3560240F4000042F40002A0FB022037
:1003900000047F39140400D0401C50EA124001D4FC
:1003A0004000491EC2B20C0604EBD010401C4008AD
:1003B000802A02D003E0002010BD20F001000029B7
:1003C00000DA0020184310BD30B480EA010202F0C8
:1003D000004530F0004221F0004013D090B1C30D31
:1003E000D40DC2F31601C0F31600E41A41F4000163
:1003F00040F400027D34914201D3641C00E04900C6
:10040000002C02DA30BC002070474FF400000023BB
:10041000914201D3891A034340084FEA4101F7D1C1
:1004200051B1914202D14FF0004105E002D24FF0AC
:10043000010101E06FF0010103EBC450284430BC1E
:1004400000F0B8BB2DE9FE4F804681EA0300C00FE3
:100450000C46009021F0004123F00045B8EB02006B
:10046000A94105D24046214690461C460B4602460D
:1004700023F00040104347D0270DC7F30A00C3F311
:100480000A510290401A019040286BDAC3F313001E
:1004900040F4801B0098924620B10023D2EB030A5F
:1004A00063EB0B0B01985946C0F14002504600F037
:1004B0007EFA06460D4650465946019A00F096FAD5
:1004C00010EB08006141002487EA115284EAE773C7
:1004D0001A4340D0009A62B3019A012A4FEA0752A8
:1004E00015DC001B61EB02014FF0004202EA0752EB
:1004F000CDE90042001C41F5801132462B4600F048
:100500009FFB03B0BDE8F08F40462146F9E7001B92
:1005100061EB0201001C41F5801300185B412018BB
:10052000A2F5001747EB030140EAD570B6196D41FB
:1005300011E06D084FEA360645EAC0754FEA0752EA
:10054000001B61EB0201001C41F5801149084FEAD4
:1005500030000019514132462B4603B0BDE8F04F40
:1005600000F05FBB0098012240000023D0EB0202A4
:1005700063EBE073009821464FEAE074B8EB0000AB
:1005800061EB0401E9E783F000435BE781F00041A0
:1005900058E72DE9FE4F81EA030404F0004421F0FE
:1005A000004100944FF0000B23F0004350EA010497
:1005B0005ED052EA03045BD0C3F30A54C1F30A5578
:1005C0002C44A4F2F3340194A0FB0254C1F31301B0
:1005D00041F48011C3F3130343F4801301FB02447D
:1005E00000FB034E840A970A44EA815447EA835782
:1005F000A4FB076802958D0A05FB07854FEA932C3B
:1006000004FB0C542705029D4FEA065847EA1637AB
:10061000B5EB08056EEB070C870E920E47EA8117C3
:1006200042EA8312A7FB0201B6EB0B0164EB000464
:100630002B0D43EA0C335E1844EB1C50DA4651464E
:10064000E7FB0201C5F313044FEA0B3343EA1453EB
:100650004FEA0432019C43EA0603A4F10C0402941D
:10066000009CCDE900B400F0EBFA03B0BDE8F08FD8
:1006700000200146F9E72DE9F04D81EA030404F07A
:10068000004B21F0004514464FF0000A23F00041D2
:1006900050EA050220D054EA01021DD0C5F30A57E2
:1006A0000246C5F31303C1F31300C1F30A5640F425
:1006B000801543F48013A7EB0608101BD64608F2FA
:1006C000FD3873EB050002D308F1010801E0921830
:1006D0005B41B8F1000F03DA00200146BDE8F08D60
:1006E00000204FF48011064684460EE0171B73EB82
:1006F000050705D3121B63EB050306434CEA010C07
:1007000049084FEA300092185B4150EA0107EDD1E9
:1007100052EA030012D082EA040083EA050108438A
:1007200005D0101BAB4106D20122002306E00022B7
:100730004FF0004302E06FF0010253101AEB060085
:100740004CEB085110EB0A0041EB0B01BDE8F04DFA
:1007500000F067BAC10F80EAE0700844CA07962328
:10076000002100F030BA96230022114600F02BBA87
:100770000EB5C10F80EAE0700844CA07002140F2BC
:1007800033438DE80E000A460B4600F059FA03B0D9
:1007900000BD0EB540F2334102910021CDE90011B8
:1007A0000A460B4600F04CFA03B000BD00F00042D0
:1007B00020F00040C10DC0F3160040F400007F2976
:1007C00001DA00207047962903DCC1F19601C84088
:1007D00001E096398840002AF4D04042704720F06A
:1007E0000040C10DC0F3160040F400007F2901DA7B
:1007F00000207047962903DCC1F19601C84070477C
:10080000963988407047C1F30A5210B5C1F31301FD
:1008100040F2FF3341F480119A4201DA002010BD0A
:1008200040F233439A42A2F2334203DC524200F0D8
:10083000CDF810BD904010BD00F0004230F00040F7
:100840000AD0C10D01F56071C0F3160042EA0151F2
:10085000C20840071143704700200146704700005E
:1008600030B5041E71F1000404DB4FF00044404237
:1008700064EB0101141E73F1000405DB1C464FF00C
:100880000043524263EB04038B4208BF824230BDF7
:1008900030B5041E71F1000404DB4FF00044404207
:1008A00064EB0101141E73F1000405DB1C464FF0DC
:1008B0000043524263EB0403994208BF904230BDAB
:1008C00001F0004330B421F0004150EA010206D0AB
:1008D0000A0DA2F56072C1F31301002A02DC30BCDC
:1008E00000207047440F44EAC104C100E01830BC46
:1008F00000EBC25000F05EB9002801DBC0F10040FF
:10090000002901DBC1F1004181427047002801DB71
:10091000C0F10040002901DBC1F10041884270476D
:1009200030B50B46014600202022012409E021FABF
:1009300002F59D4205D303FA02F5491B04FA02F5BC
:100940002844151EA2F10102F1DC30BD2DE9F05F53
:100950000546002092469B4688460646814640242E
:100960001BE0284641464746224600F02FF85346F2
:100970005A46C01A914110D311461846224600F03B
:1009800016F82D1A67EB01084F4622460120002178
:1009900000F00DF817EB00094E41201EA4F10104F0
:1009A000DFDC484631462A464346BDE8F09F202A10
:1009B00004DB203A00FA02F1002070479140C2F1B6
:1009C000200320FA03F3194390407047202A04DBE8
:1009D000203A21FA02F00021704721FA02F3D040B8
:1009E000C2F120029140084319467047202A06DBD5
:1009F000CB17203A41FA02F043EAE07306E041FAED
:100A000002F3D040C2F120029140084319467047DA
:100A1000014900F003B80000B80E002010B50068CE
:100A20003C22B0FBF2F302FB1303B0FBF2F00B60CD
:100A3000B0FBF2F302FB1303B0FBF2F018224B60A1
:100A4000B0FBF2F302FB1303B0FBF2F0021D8B606C
:100A50000723B2FBF3F403FB1422800040F2B553EA
:100A600000F66C308A61B0FBF3F2B0FBF3F403FBE9
:100A70001400443280084A61C8613B2802D39207BF
:100A800000D0401C0022074C13460A61E25C8242FF
:100A900003D8801A5B1C0B61F8E7401CC86008464D
:100AA00010BD0000027800080FB4002300B589B023
:100AB0000CA900910B996FF00042CB601E4B06937E
:100AC0001E4B07930423CDE901321D4A08920246CA
:100AD0006B46002000F0CEF909B05DF814FB70B54C
:100AE00086B006464FF0FF300091CDE901010020AD
:100AF00015460C4604903246694604A8FFF7D4FF19
:100B000002460498211825B108B1084600E02046A5
:100B10002860049800280DD0002A02DD0098884241
:100B200008D0081B0094CDE901043246694604A8A8
:100B3000FFF7BAFF06B070BDAD100008CB1000087B
:100B4000390D00082DE9F04791460F4680460446CE
:100B5000002614F8015B2DB100F0EAF80068405D52
:100B6000C007F6D12B2D02D02D2D18D0641E4A4679
:100B70003946204600F0BAFA27B13968A14201D1BE
:100B8000C7F8008071054FF002040BD540420028E1
:100B900003DD04F087FE0460A007BDE8F08746F49B
:100BA0008066E4E70028F8DA04F07CFE04606FF069
:100BB0000040F2E70029A8BF7047401C490008BF69
:100BC00020F00100704710B4B0FA80FC00FA0CF07D
:100BD00050EA010404BF10BC704749B1CCF12004B5
:100BE00021FA04F411FA0CF118BF01212143084342
:100BF000A3EB0C01CB1D4FEA00614FEA102042BF6E
:100C0000002010BC704700EBC35010440029A4BF63
:100C100010BC7047401C490008BF20F0010010BC08
:100C2000704710B5141E73F1000408DA401C41F13E
:100C3000000192185B411A4301D120F0010010BD60
:100C40002DE9F04D92469B4611B1B1FA81F202E0D6
:100C5000B0FA80F220329046FFF7A9FE04460F4614
:100C600040EA0A0041EA0B0153465A46084313D0B2
:100C7000114653EA010019D0C8F140025046FFF76F
:100C8000A5FE05460E46504659464246FFF78FFEE2
:100C9000084305D0012004E020463946BDE8F08D28
:100CA0000020054346EAE0762C4337430A98630563
:100CB000E40AA0EB08000022FD0A44EA47540A3087
:100CC00002D500200146E9E7010510196941DDE977
:100CD000084500196941BDE8F04DA2E7C1F30A5289
:100CE000C1F3130140F2FF3341F480119A4202DA5A
:100CF00000200146704740F233439A42A2F2334249
:100D000002DC5242FFF762BEFFF751BE064C074DB0
:100D100006E0E06840F0010394E8070098471034CB
:100D2000AC42F6D3FFF7E6F9307A0008507A0008B3
:100D3000004870479078000810B50446FFF7F8FFA8
:100D40000068005D00F0010010BD00002DE9FF4FBC
:100D5000087883B09946FF2805D0491C2D2804D077
:100D60000024002008E000200BE00124F9E700EB5C
:100D7000800003EB4000491C0B78FF2BF7D104B136
:100D8000404200230293147819461D462D2C01D0B1
:100D90002B2C04D1521C2D2C13D000240294AA46D3
:100DA0001478FF2C0FD00A25A3FB057801FB0581E1
:100DB0004FF0000C03FB0C11521CE3194AEB01012C
:100DC000EEE70124EAE7814453EA010002D019F575
:100DD000C87F06DA03980021C0E9001107B0BDE81A
:100DE000F08F0025AE4E2F46DFF8B882184600F08F
:100DF000DAF9CDE90001B9F1000002DAC9F1000425
:100E000000E004460023A74A1AEB030B42EB045A06
:100E100012E0E00707D02A46334638464146FFF73E
:100E2000B8FB074688462A46334610461946FFF760
:100E3000B0FB05460E466410002CEAD1DDE9000146
:100E4000B9F1000F5A46534606DAFFF714FC3A464A
:100E50004346FFF710FC05E0FFF79BFB3A4643468D
:100E6000FFF797FB029A0AB181F00041039AC2E9A9
:100E70000001B3E72DE9FF4F1F468DB0D7E90146CA
:100E80004FF0FF382E2045464FF000090B90B9690E
:100E90006D1C0E988847396A824688470028F6D12B
:100EA000BAF1FF3F0AD024F4D064002E11DDBAF16C
:100EB0002B0F08D0BAF12D0F0BD102E0404611B034
:100EC0008DE744F48064B9696D1C0E9888478246AA
:100ED000761E6946600501D52D2000E02B208DF897
:100EE000000001F1010B0DF1200809E0B9696D1C4A
:100EF0000E98884782460F9844F40074761E056069
:100F0000002E02DDBAF1300FF0D00B998A453ED1A8
:100F100044F0800406E00F99681CA9F1010944F42B
:100F200000740860B9696D1C761E0E988847824669
:100F30003028F0D02BE00B998A4505D1200603D448
:100F400044F08004761E18E0504604F08DFD08B38E
:100F50000DF11301761E44F400748B4508D2AAF1FA
:100F600030000BF8010B200607D5A9F1010003E0C2
:100F7000200602D409F101008146A00502D50F998F
:100F8000681C0860B9696D1C0E9888478246002E5F
:100F9000D1DC53E0002E51DDBAF1650F02D0BAF179
:100FA000450F4BD1A00549D5B9696D1C24F4407497
:100FB000761E0E9888478246002E0CDD2B2804D022
:100FC000BAF12D0F07D144F48074B9696D1C0E98E5
:100FD00088478246761EE00501D52D2100E02B21B1
:100FE00008F8011BCDF82C8021E00DF12901761EB7
:100FF00044F4007488450CD2AAF1300010F0FF00D0
:1010000088F8000002D10B99884509D908F1010838
:1010100006E0E00501D5244801E042F20F70814668
:10102000B9696D1C0E98884782460F980560002E9E
:1010300004DD504604F018FD0028D6D1F9690E9859
:101040008847FF208BF8000088F8000000200690F9
:1010500007904B466A4608A906A8FFF777FEA00549
:1010600002D46FF001002AE714F0240F0AD0E00741
:1010700014D1DDE906123868031D3B600068C0E941
:1010800000120BE0DDE90601FFF71AFC0146E0075C
:1010900004D13868021D3A600068016028460EE7F6
:1010A000000014400000F03FF1D8FFFF426842B159
:1010B000016811F8013B23B1521EC0E90012184625
:1010C00070470121C160881E704742685AB1C368E9
:1010D000016843B983688B4205D0491E521CC0E9A0
:1010E0000012002070474FF0FF3070472DE9F05F8D
:1010F00082460078002715468B460AF10104B9465E
:10110000302801D09DB113E014F8010B0127782895
:1011100003D0582801D045B10AE00DB1102D07D1F8
:101120000027102514F8010B02E0082500E00A252D
:101130000026B0460EE005FB080005FB06F101277E
:1011400001EB10461FFA80F8B6F5803F00D3B94690
:1011500014F8010B294600F018F80028EBDABBF16F
:10116000000F05D00FB1641E00E05446CBF80040DC
:10117000B9F1000F06D004F095FB02210160C81EF2
:10118000BDE8F09F48EA0640FAE73A2800D2303836
:1011900020F02002412A01D3A2F13700884201D376
:1011A0004FF0FF3070470EB540F2334202920022FA
:1011B000CDE900221346FFF743FD03B000BD70B533
:1011C0008C1810F8015B15F0070301D110F8013BF2
:1011D0002A1106D110F8012B03E010F8016B01F879
:1011E000016B5B1EF9D12B0705D40023521E0DD4D1
:1011F00001F8013BFAE710F8013BCB1A921C03E01F
:1012000013F8015B01F8015B521EF9D5A142D8D356
:10121000002070BD21B1826842F00102826003E0CB
:10122000826822F0010282607047014600208A68CD
:1012300002F004020AB1012000E0002070470146DC
:10124000C86C80B270470246002013680B400BB197
:10125000012000E000207047014600208A6802F06B
:1012600008020AB1012000E00020704730B50246B4
:101270000020002350680F4C20400D790C6844EA90
:1012800005242043506090680B4C2040D1E9025463
:101290002C434D7944EA450420439060D06A20F401
:1012A00070000C7C641EE4B2234340EA0350D06219
:1012B00030BD0000FFFEF0FFFDF7F1FFF0B5044682
:1012C0000D4600200021092D11DDE068A5F10A0678
:1012D00006EB4607072606FA07F18843A5F10A063A
:1012E00006EB460603FA06F10843E0600CE02069CD
:1012F00005EB4507072606FA07F1884305EB450687
:1013000003FA06F108432061072A0FDA606B561EC4
:1013100006EB86071F2606FA07F18843561E06EBE2
:10132000860605FA06F10843606322E00D2A0FDA0B
:10133000206BD61F06EB86071F2606FA07F18843A7
:10134000D61F06EB860605FA06F10843206310E077
:10135000E06AA2F10D0606EB86071F2606FA07F1E2
:101360008843A2F10D0606EB860605FA06F108434E
:10137000E062F0BD816841F008018160704721B1F1
:10138000826842F4A002826003E0826822F4A00234
:1013900082607047816841F00401816070470000FD
:1013A00010B504460523012221460948FFF786FFB0
:1013B00001210748FFF7E3FF00BF02210448FFF7C0
:1013C00042FF0028F9D00248FFF739FF10BD0000A6
:1013D0000024014000B587B00121480202F040FD21
:1013E0000121042002F03CFD4FF4004002F01CFDFE
:1013F00000208DF81B008020ADF8180003208DF828
:101400001A0006A9164800F0FDFF00200190049084
:101410004FF46020039000208DF809008DF808003B
:1014200001208DF8140001A90E48FFF71FFF0121CC
:101430000C48FFF7EFFE0B48FFF79CFF00BF094881
:10144000FFF70AFF0128FAD00648FFF7A3FF00BF05
:101450000448FFF7EAFE0128FAD007B000BD0000FB
:10146000000801400024014070B53549086835493D
:101470000968FFF741FA34D33149086832490968ED
:10148000FFF744FA2DD331480068FFF763F90446AB
:101490002B4841682046FFF739FA22D32C480068D0
:1014A000FFF758F90446264841682046FFF724FA1A
:1014B00017D3234AD1699068FFF71EFA11D3204A47
:1014C000116A9068FFF722FA0BD31D4A516AD0685F
:1014D000FFF712FA05D31A4A916AD068FFF716FA95
:1014E00002D200F077F901E000F06CF919480078B9
:1014F00020BB13498868FFF79FF904460022164B6A
:10150000FFF7C6F91AD80E498868FFF795F904461F
:101510000022124BFFF7A4F910D8094AD16990684C
:10152000FFF7EAF902D205F0E9F807E0044AD169C9
:101530009068FFF7EBF901D205F0D8F870BD000014
:10154000740B00202C00002030000020340000200C
:1015500038000020240000200000F03F0000594027
:1015600008B548208DF8030003208DF80200802084
:10157000ADF800006946134800F044FF012012490D
:1015800008600520002100F099FD80210F4801F03E
:101590000DF8012802D10E49086002E000200C4934
:1015A00008600020084908600520002100F086FD41
:1015B00010208DF803006946024800F023FF04481C
:1015C000006808BD000C01409881214200080140DC
:1015D000E4000020F8B5002448208DF803008020A6
:1015E000ADF8000003208DF802006946174800F0AE
:1015F00009FF8021154800F0E4FF00251BE060068C
:10160000040E0120124908600520002100F056FD5B
:1016100080210E4800F0CAFF012801D1012600E018
:101620000026344300200A4908600520002100F00C
:1016300045FD681CC5B2082DE1DB10208DF80300C4
:101640006946024800F0DEFE2046F8BD000C01406D
:101650009881214238B5044610208DF803000320FC
:101660008DF802008020ADF800006946104800F0B7
:10167000C9FE012C03D101200E49086005E01CB908
:1016800000200C49086000E038BD01200949091F0D
:1016900008600520002100F011FD00200649C1F876
:1016A00098010520002100F009FD00BFECE70000D3
:1016B000000C01409C8121420080214270B504460B
:1016C00000251EE004F0800020B180210F4800F0CA
:1016D00078FF03E080210D4800F071FF6006040EE2
:1016E00001200B4908600520002100F0E7FC0020E4
:1016F0000849C1F898010520002100F0DFFC681CB2
:10170000C5B2082DDEDBFFF72BFF70BD000C0140DA
:10171000988121420080214210B501200A490860C9
:101720000A49C1F898010520002100F0C7FC80217A
:10173000074800F044FF0520002100F0BFFC4021D5
:10174000034800F03CFF10BD9C81214200802142F3
:10175000000C014010B5002009490860012009492A
:10176000C1F898010520002100F0A8FC802106485E
:1017700000F027FF0520002100F0A0FC10BD0000B4
:101780009C81214200802142000C014000BFFEE705
:1017900008B50121042002F063FB10208DF803003E
:1017A0000120ADF8000003208DF8020069460448CE
:1017B00000F028FE0121024800F003FF08BD0000F0
:1017C0000008014010B50121014800F0FAFE10BDEB
:1017D0000008014010B50121014800F0F0FE10BDE5
:1017E0000008014000B5ADF5017D4FF4007101A87E
:1017F000FEF705FD4FF4007101A8FEF700FD05A2FC
:1018000009A101A804F03AF801A804F013F80DF5B5
:10181000017D00BD434D443A434F4E4E4543544530
:10182000445F574946497D002573000010B54FF4C9
:1018300000710548FEF7E3FC00200349A1F800020F
:1018400081F8020210BD00004801002010B5ADF57E
:10185000047D044601202E490870410204A8FEF7C9
:10186000CEFC4FF4007104A8FEF7C9FC29A1204664
:10187000FEF7F5FC002816D101202B490870410223
:1018800004A8FEF7BCFC29A02AA12CA22DA3CDE917
:10189000002102901FA234A104A803F0EFFF04A8C6
:1018A00003F0C8FF31E034A12046FEF7D8FC002841
:1018B00016D102201C490870010204A8FEF79FFC03
:1018C00032A035A13DA23FA3CDE9002102902AA27A
:1018D00025A104A803F0D2FF04A803F0ABFF14E095
:1018E0003BA12046FEF7BBFC78B903200E490870E7
:1018F0004FF4007104A8FEF782FC35A21DA104A8D4
:1019000003F0BCFF04A803F095FF0DF5047D10BDA6
:10191000F1000020434D443A434F4E4E4543544559
:10192000445F5443500000003C00002038333434FE
:101930000000000074616E673200000074616E6721
:10194000310000003531643738626561393233392E
:1019500034376562626561636530303735643936C6
:10196000636332310000000025732C25732C25732E
:101970002C25732C25737D00434D443A434F4E4E26
:1019800045435445445F4D5154540000636E2D73DC
:1019900068616E67686169006366303065626139ED
:1019A0003163393433376432663465383534316500
:1019B0003962373937656134000000006669726545
:1019C000000000006B317236636C664C3655330094
:1019D000434D443A434F4E4E45435445445F48546B
:1019E0005450000010B50024002000F04BF805E032
:1019F000601CC4B20120002100F060FB4FF4805154
:101A00000F4800F0D3FD08B1642CF1DB642C01DB3E
:101A1000012010BD002405E0601CC4B2012000219B
:101A200000F04CFB4FF48051054800F0BFFD08B9B1
:101A3000642CF1DB642C01DB0120EAE70020E8E7FD
:101A4000000C014008B50121082002F009FA4FF40A
:101A50008050ADF8000010208DF8030003208DF8B1
:101A600002006946064800F0CDFC4FF4805104485E
:101A700000F0A7FD00F090F8FFF7B4FF08BD0000EC
:101A8000000C014038B5044654B14FF48050ADF815
:101A9000000003208DF8020010208DF8030006E0FE
:101AA0004FF48050ADF8000004208DF80300694623
:101AB000014800F0A7FC38BD000C014010B500241F
:101AC00005E0601CC4B20120002100F0F7FA4FF4D9
:101AD0008051124800F06AFD08B1642CF1DB00244B
:101AE00005E0601CC4B20120002100F0E7FA4FF4C9
:101AF00080510A4800F05AFD08B9642CF1DB282017
:101B0000002100F0DBFA4FF48051044800F04EFD54
:101B100008B1012010BD0020FCE70000000C0140CE
:101B200070B50024002506E06006040EFFF7C6FF2E
:101B30000443681CC5B2082DF6DB204670BD7CB599
:101B400005460E4600F028F8FFF74CFFF8B90024D0
:101B500005E0FFF7E5FF0DF80400601CC4B2052C9A
:101B6000F7DB9DF800009DF8011008449DF8021075
:101B700008449DF8031008449DF80410884208D1D9
:101B80009DF8000030709DF80200287001E00120EF
:101B90007CBD0020FCE7000010B50120FFF772FFBC
:101BA0004FF48051084800F00AFD1420002100F095
:101BB00073FA4FF48051044800F003FD0D2000211A
:101BC00000F07CFA10BD0000000C01402DE9F04748
:101BD00092B0D84890F80202012871D10020D5496E
:101BE00081F802020026D4A1D248FEF713FB00B10F
:101BF000D7E0D5480078012812D1D4A1CD48FEF70E
:101C000009FB04462CB1D3A1CA48FEF703FB00B17F
:101C1000264626B9CFA1C748FEF7FCFA064612E0D1
:101C2000C9480078022805D1CCA1C248FEF7F2FAD3
:101C3000064608E0C4480078032804D1C9A1BD487D
:101C4000FEF7E8FA0646002E76D04FF00009BFA155
:101C5000B848FEF7DFFA50B1BCA1B648FEF7DAFA91
:101C60000446C2A1201DFEF7D5FA814600BFB9F196
:101C7000000F04D1BDA13046FEF7CCFA8146B9F180
:101C8000000F02D112B0BDE8F087002484E004EB1D
:101C90004400B74951F82030B6A220210AA803F029
:101CA000D5FD0AA94846FEF7B5FA8246BAF1000FFB
:101CB00000D170E00AA8FEF7CBFA00EB0A0501E0BC
:101CC00035E16D1C28782028FBD028782228F8D010
:101CD000AAA12846FEF7D1FA8046B8F1000F00D13C
:101CE00059E0A8EB0507002F01DD202F00DB52E0B3
:101CF0003A46294602A8FEF79FFA002002A9C855D5
:101D000004EB44009A4901EB80000079052840D299
:101D1000DFE800F003131E29340002A804F053FA90
:101D2000CDE90001FEF7CCFD04EB4401904A02EB43
:101D30008101896808602CE032E002A8FEF7ADFA64
:101D400004EB44018A4A02EB81018968086020E0C3
:101D500002A8FEF7A2FA04EB4401854A02EB8101D6
:101D60008968087015E002A8FEF797FA04EB4401B1
:101D70007F4A02EB8101896808800AE002A8FEF729
:101D80008CFA04EB44017A4A02EB8101896808600D
:101D900000BF00BF00BF641C052CFFF478AF00BF7C
:101DA00000BF77A16348FEF735FA061E3CD077A145
:101DB0003046FEF72FFA054615B9FFF737FD61E704
:101DC000AD1C5C48281A84B25A49081904F00BFC6F
:101DD0006F490880574A611D501804F0F5FB6C49A3
:101DE0004880544A04F10801501804F0EDFB68499A
:101DF0008880504A04F10B01501804F0E5FB644957
:101E0000C8804C4A04F10E01501804F0DDFB604913
:101E10000881484A04F11101501804F0D5FB5C49CF
:101E2000488101F083FA00BF5AA14248FEF7F2F957
:101E3000061E07D006F10F042046FEF72EFA594978
:101E4000087000BF58A13B48FEF7E4F9061E1AD0FF
:101E500006F10F0558A12846FEF70FFA074627B9E5
:101E60003448FEF7F5F9334947187C1B002C09DD8F
:101E70000E2C07DA224629465148FEF7DDF90020EC
:101E80004F49085500BF4FA12A48FEF7C3F9061E67
:101E90004AD036A13046FEF7BDF98046B8F1000FB2
:101EA00041D04BA14046FEF7B5F98146B9F1000F8C
:101EB00019D009F1080749A13846FEF7ABF9824667
:101EC000BAF1000F0ED0AAEB0705002D09DD322D67
:101ED00007DA2A4639464248FEF7AEF90020404963
:101EE000485500BF00BF3FA14046FEF793F90446A6
:101EF000C4B1A71D39A13846FEF78CF98246BAF164
:101F0000000F0ED0AAEB0705002D09DD142D07DA0E
:101F10002A4639463548FEF78FF90020334948559F
:101F200000BF00BF00BF00BFFFF780FC00BF00BFC5
:101F3000A8E6000048010020434D443A434F4E4E6E
:101F400045435445440000003C0000206D73673D4C
:101F50000000000074616E67320000004D6573730D
:101F60006167650068747470000000007B00000009
:101F70008C000020222573223A0000002C7D2200D4
:101F80004765745F54696D65000000003A220000E7
:101F9000CC000020574946495F434F4E4E454354BD
:101FA00045443A00F1000020616464726573733A3D
:101FB000687474703A2F2F003A2F20090A0D000020
:101FC000EA050020574946495F494E464F3A00000E
:101FD0002253534944223A2200000000220000000C
:101FE00044000020224950223A22000076000020BE
:101FF00000200949086048608860C8600748486157
:102000000749054881610749C161074901620749DC
:102010004162074981627047740B00200000D8417B
:102020000000A0420000E041000020420000A0406B
:102030000000A0417047000030B51449B1F1807F25
:1020400001D301201DE021F07F40401E4FF0E0222F
:10205000506150170F22002807DA13071D0E0C4B92
:1020600000F00F04241F1D5503E013071C0E094B3D
:102070001C5400BF00204FF0E02290610720106147
:102080000020012801D100BFFEE730BD401901004A
:1020900018ED00E000E400E010B500BF064B1B683F
:1020A0001A4600BF00BF044B1B689B1A00241B1A72
:1020B0008C41F7D310BD0000E800002030B547E0A8
:1020C00000BF00BF00BF00BF00BF00BF00BF00BF18
:1020D00000BF00BF00BF00BF00BF00BF00BF00BF08
:1020E00000BF00BF00BF00BF00BF00BF00BF00BFF8
:1020F00000BF00BF00BF00BF00BF00BF00BF00BFE8
:1021000000BF00BF00BF00BF00BF00BF00BF00BFD7
:1021100000BF00BF00BF00BF00BF00BF00BF00BFC7
:1021200000BF00BF00BF00BF00BF00BF00BF00BFB7
:1021300000BF00BF00BF00BF00BF00BF00BF00BFA7
:1021400000BF00BF00BF00BF00BF00BF00BF00BF97
:102150000A460346401E61F1000100256B406A40BB
:102160001343ADD130BD000000B587B0002006900C
:10217000029003900490059001900121042001F049
:102180006FFE0121480401F05BFE0420ADF8180049
:1021900018208DF81B0003208DF81A0006A92D4881
:1021A00000F030F90820ADF8180004208DF81B006D
:1021B00006A9284800F026F94FF4E13002900020EB
:1021C000ADF80C00ADF81000ADF80E000C20ADF825
:1021D00012000020ADF8140002A91F4803F0C2F954
:1021E000012240F225511C4803F096F9012240F2E9
:1021F0002441194803F090F926208DF804000120AD
:102200008DF8070000208DF8050001208DF80600EC
:1022100001A801F0B3F801210F4803F03AF940F2A8
:1022200004410E48FDF7EBFF00200C4981F8020243
:10223000A1F800024FF4FA600021FFF72DFF08A07B
:1022400003F0F8FA4FF47A700021FFF725FF07B08A
:1022500000BD00000008014000440040480100208B
:1022600041540D0A000000002DE9F04124A12B4843
:10227000FDF7D0FF0746EFB107F1180628A1304659
:10228000FDF7FBFF8046B8F1000F04D13046FDF7A3
:10229000DFFF00EB0608A8EB0604002C09DD312C5B
:1022A00007DA224631461F48FDF7C6FF00201D49C8
:1022B000085500BF1CA11948FDF7ACFF0546EDB15C
:1022C00005F1100616A13046FDF7D7FF8046B8F19C
:1022D000000F04D13046FDF7BBFF00EB0608A8EB6A
:1022E0000604002C09DD132C07DA22463146134878
:1022F000FDF7A2FF00201149085500BFBDE8F0819D
:10230000436F6E6E656374696E6720746F2053410E
:102310005645442041503A2000000000480100206A
:10232000200D0A0044000020535441204950204110
:102330006464726573733A20000000007600002028
:102340002DE9F04107460C460025002609E03846F5
:10235000FFF726F8054405200021FFF79DFE701CBD
:10236000C6B2A642F3DBB5FBF4F080B2BDE8F08163
:1023700000B587B00121480201F072FD012104205F
:1023800001F06EFD4FF4004001F04EFD00208DF88D
:102390001B002020ADF8180003208DF81A0006A9B4
:1023A000164800F02FF80020019004904FF46020B0
:1023B000039000208DF809008DF8080001208DF8A9
:1023C000140001A90E48FEF751FF01210C48FEF749
:1023D00021FF0B48FEF7CEFF00BF0948FEF73CFF88
:1023E0000128FAD00648FEF7D5FF00BF0448FEF7E3
:1023F0001CFF0128FAD007B000BD00000008014012
:10240000002401402DE9F04102460025002600206D
:1024100000230024002791F803C00CF00F0591F869
:1024200003C00CF0100CBCF1000F03D091F802C0F7
:102430004CEA050591F800C0BCF1000F31D01468DA
:1024400000202BE04FF0010C0CFA00F3B1F800C0B3
:102450000CEA03069E4220D183004FF00F0C0CFAC9
:1024600003F7BC4305FA03FC4CEA040491F803C0EB
:10247000BCF1280F06D14FF0010C0CFA00FCC2F899
:1024800014C00AE091F803C0BCF1480F05D14FF029
:10249000010C0CFA00FCC2F810C0401C0828D1D373
:1024A0001460B1F800C0BCF1FF0F34DD54680020A7
:1024B0002EE000F1080C4FF0010808FA0CF3B1F817
:1024C00000C00CEA03069E4221D183004FF00F0C9E
:1024D0000CFA03F7BC4305FA03FC4CEA040491F838
:1024E00003C0BCF1280F05D100F1080C08FA0CF864
:1024F000C2F8148091F803C0BCF1480F07D100F175
:10250000080C4FF0010808FA0CF8C2F81080401CC3
:102510000828CED35460BDE8F0810000F0B50A462B
:10252000002300240021002500F00046B6F1004FF2
:1025300002D11D4EF16901E01B4E7168C0F30345E5
:1025400083B200F44016B6F5401F08D121F0706147
:10255000154E766826F07066134F7E6012E000F428
:102560008016B6F5801F06D1032606FA05F4A143AE
:1025700041F0706106E0460D360103FA06F6B143FC
:1025800041F0706122B1460D360103FA06F631437F
:1025900000F00046B6F1004F02D1034EF16101E0B8
:1025A000014E7160F0BD00000000014002460020B5
:1025B00093680B400BB1012000E00020704741619F
:1025C0007047016170470AB1016100E041617047E5
:1025D00070472DE9F04107460C460025002609E02A
:1025E0003846FEF7DDFE054405200021FFF754FDC7
:1025F000701CC6B2A642F3DBB5FBF4F080B2BDE8B6
:10260000F08100002DE9F84F0446894649462046EE
:10261000FFF796FE00900098FEF7BBF807460B4ABE
:102620000B4BFDF7B6FF0546FEF74AF982465046CA
:10263000FEF702F90746074A074BFDF7AAFF0546D2
:10264000FEF73EF983465846BDE8F88FD7A3703DA4
:102650000AD7F33FD9CEF753E3A59B3F10B500242B
:102660004FF400410B48FFF7A1FF80B9142000216F
:10267000FFF712FD00BF4FF400410648FFF796FF39
:102680000028F8D014200021FFF706FD0124204681
:1026900010BD00000008014010B5002408210B48BF
:1026A000FFF784FF78B914200021FFF7F5FC00BF85
:1026B00008210648FFF77AFF0028F9D014200021EE
:1026C000FFF7EAFC0224204610BD0000000C014088
:1026D00010B5002410210B48FFF768FF78B91420CB
:1026E0000021FFF7D9FC00BF10210648FFF75EFF6D
:1026F0000028F9D014200021FFF7CEFC0324204647
:1027000010BD0000000C014010B5002420210B4832
:10271000FFF74CFF78B914200021FFF7BDFC00BF84
:1027200020210648FFF742FF0028F9D0142000219D
:10273000FFF7B2FC0424204610BD0000000C01404D
:102740002DE9F04104460D4629462046FFF741FF9A
:10275000064640F6FF70801B6421484340F6FF7137
:1027600090FBF1F73846FDF7F5FF80464046BDE89F
:10277000F08100BFFEE7000008B500F041FE08232D
:102780003FA20021084601F037FA082341A2102198
:10279000002001F031FA0820032300904048102166
:1027A0000268602001F002FA08233EA220210020E6
:1027B00001F022FA0820032300903D4820210268FE
:1027C000602001F0F3F9102380221946602001F007
:1027D0001FF801F029FA51E0FFF75EFF02280AD145
:1027E0002F480068401E2E490860084600681D28D2
:1027F00001D13C200860FFF76BFF03280AD128486D
:102800000068401C26490860084600683D2801D140
:102810001E200860FFF778FF042801D1002008BDC2
:1028200000F0EEFD082316A20021084601F0E4F9AD
:10283000082318A21021002001F0DEF9082003234C
:102840000090174810210268602001F0AFF90823BA
:1028500014A22021002001F0CFF9082003230090CA
:10286000134820210268602001F0A0F91023802283
:102870001946602000F0CCFF01F0D6F9ACE700006B
:102880002D3E20202020202020202020202020201D
:102890000000000048756D695F4C696D69743A000D
:1028A0003400002048756D695F55707065723A009C
:1028B000380000202DE9FE43012425464FF0FF0893
:1028C00000F09EFD08235EA20021084601F094F965
:1028D000082360A21021002001F08EF960480068F2
:1028E000FDF746FF06460B46082001210222CDE9EE
:1028F0000021029032461021602001F019F80823CF
:1029000058A22021002001F077F959480068FDF70E
:102910002FFF06460B46082001210222CDE90021A7
:10292000029032462021602001F002F8601E00076C
:10293000010E10238022002000F06AFF01F074F9DC
:102940007CE0FFF7A9FE022803D1601EC4B204B9DF
:102950000324FFF7BDFE032804D1601CC4B2042C7D
:1029600000D10124FFF7D0FE042800D1A046A542E3
:1029700040D000F045FD082331A20021084601F0B7
:102980003BF908233BA21021002001F035F934481F
:102990000068FDF7EDFE06460B46082001210222E5
:1029A000CDE90021029032461021602000F0C0FFE6
:1029B00008232CA22021002001F01EF92C480068D9
:1029C000FDF7D6FE06460B46082001210222CDE97E
:1029D0000021029032462021602000F0A9FF601EF5
:1029E0000007010E10238022002000F011FF254671
:1029F00001F01AF9B8F1010F06D0B8F1020F06D0B4
:102A0000B8F1030F19D10DE00020BDE8FE83FFF7F8
:102A1000B3FEFFF7B1FE20B94FF00008002500F02B
:102A2000EFFC0AE000F02CF800F02AF820B94FF093
:102A30000008002500F0E4FC00BF00BF81E70000B3
:102A40002D3E20202020202020202020202020205B
:102A50000000000048756E695F4C6F7765723A0040
:102A60003400002048756D695F55707065723A00DA
:102A70003800002048756D695F4C6F7765723A00C9
:102A800008B500F0BDFC08233FA20021084601F074
:102A9000B3F8082341A21021002001F0ADF808206E
:102AA00003230090404810210268602001F07EF866
:102AB00008233EA22021002001F09EF808200323D5
:102AC00000903D4820210268602001F06FF810233B
:102AD00080222021602000F09BFE01F0A5F851E04B
:102AE000FFF7DAFD02280AD133480068401E324958
:102AF0000860084600681D2801D178200860FFF7AB
:102B0000E7FD03280AD12C480068401C2A490860C8
:102B100008460068792801D11E200860FFF7F4FDFF
:102B2000042801D1002008BD00F06AFC082316A289
:102B30000021084601F060F8082318A210210020A7
:102B400001F05AF80820032300901748102102686A
:102B5000602001F02BF8082314A22021002001F0AE
:102B60004BF80820032300901348202102686020BE
:102B700001F01CF8102380222021602000F048FE84
:102B800001F052F8ACE700002D3E2020202020204C
:102B900020202020202020200000000048756D69A2
:102BA0005F4C696D69743A003400002048756D69A6
:102BB0005F55707065723A003800002010B500F063
:102BC00091FB0448416B81630021416300F004F8EC
:102BD00010BD0000740B00204AF6AA2001490860CD
:102BE000704700000030004008B50121042001F0CA
:102BF00037F910208DF8030003208DF80200C02063
:102C0000ADF8000069460548FFF7FCFB012001F024
:102C100099FBB4200021FFF73FFA08BD000C0140EA
:102C200010B501F00FFEFFF707FA00F09DFD00F070
:102C300067F800F02DF800F02DFBFFF795FAFEF78E
:102C4000C9FBFFF7D1FFFEF7A3FDFFF791FB0AE0F9
:102C500008230DA20021084600F0CEFF4FF47A7041
:102C60000021FFF719FAFEF7EDFE0028F0D1FEF77C
:102C70008FFD03F021FD01F0F9F9FFF7B9F901F03B
:102C80004DFE01F061FE10BD6572726F72000000B2
:102C900008B501210C2001F0E3F80121084601F0FC
:102CA000DFF801211348FFF739FC48208DF80300B5
:102CB00003208DF802004FF40040ADF80000694693
:102CC0000D48FFF79FFB0820ADF8000069460B4850
:102CD000FFF798FB1020ADF8000069460748FFF7A2
:102CE00091FB2020ADF8000069460448FFF78AFBFD
:102CF00008BD00000002300000080140000C014047
:102D000008B50121042001F0ABF810208DF8030074
:102D10000120ADF8000003208DF802006946034849
:102D2000FFF770FB00F004F808BD00000008014048
:102D300010B501210148FFF744FC10BD0008014017
:102D40003EB500F05DFB082353A20021084600F0C9
:102D500053FF082355A21021002000F04DFF5749D2
:102D6000486AFDF769FD04460B460820012102224E
:102D7000CDE90021029022461021602000F0D8FD0C
:102D800008234FA22021002000F036FF4B49886A1B
:102D9000FDF752FD04460B46082001210222CDE931
:102DA0000021029022462021602000F0C1FD102366
:102DB00080221946602000F02BFD00F035FF6AE00C
:102DC000FFF76AFC02280FD13C49486A4FF07E5158
:102DD000FDF7C2FA39494862486A0021FDF78CFDC7
:102DE00002D13B4935484162FFF772FC03280ED1FE
:102DF0003249486A3749FDF75DFA30494862486A06
:102E00003549FDF779FD02D134492C484162FFF77D
:102E10007BFC042801D100203EBD00F0F1FA08231C
:102E20001DA20021084600F0E7FE08231FA2102182
:102E3000002000F0E1FE2149486AFDF7FDFC044650
:102E40000B46082001210222CDE9002102902246F2
:102E50001021602000F06CFD082319A22021002021
:102E600000F0CAFE1549886AFDF7E6FC04460B46E9
:102E7000082001210222CDE90021029022462021D2
:102E8000602000F055FD102380221946602000F0DC
:102E9000BFFC00F0C9FE93E72D3E2020202020201B
:102EA0002020202020202020000000004C6967689E
:102EB000745F4C6F7765723A00000000740B00205D
:102EC0004C696768745F55707065723A0000000065
:102ED0000000F0410000A0400000AA420000A04114
:102EE0002DE9FE4301242546FF2600F089FA082338
:102EF0005BA20021084600F07FFE08235DA210219E
:102F0000002000F079FE5F49486AFDF795FC07460E
:102F10000B46082001210222CDE9002102903A4609
:102F20001021602000F004FD082357A2202100207A
:102F300000F062FE5349886AFDF77EFC07460B46A7
:102F4000082001210222CDE9002102903A462021E9
:102F5000602000F0EDFC601E0007010E10238022AF
:102F6000002000F055FC00F05FFE77E0FFF794FBD7
:102F7000022803D1601EC4B204B90324FFF7A8FBE2
:102F8000032804D1601CC4B2042C00D10124FFF733
:102F9000BBFB042800D12646A54240D000F030FA01
:102FA00008232FA20021084600F026FE082331A2A4
:102FB0001021002000F020FE3249486AFDF73CFC59
:102FC00007460B46082001210222CDE9002102908C
:102FD0003A461021602000F0ABFC08232AA22021F1
:102FE000002000F009FE2749886AFDF725FC074606
:102FF0000B46082001210222CDE9002102903A4629
:103000002021602000F094FC601E0007010E1023B8
:103010008022002000F0FCFB254600F005FE012E7A
:1030200004D0022E05D0032E17D10CE00020BDE8FD
:10303000FE83FFF785FEFFF783FE18B900F0E0F985
:103040000026002509E000F027F800F025F818B95F
:1030500000F0D6F90026002500BF00BF86E700007B
:103060002D3E202020202020202020202020202035
:10307000000000004C696768745F4C6F7765723AB6
:1030800000000000740B00204C696768745F557085
:103090007065723A000000003EB500F0B1F90823F7
:1030A00053A20021084600F0A7FD082355A21021D5
:1030B000002000F0A1FD5749486AFDF7BDFB04461A
:1030C0000B46082001210222CDE900210290224670
:1030D0001021602000F02CFC08234FA220210020AA
:1030E00000F08AFD4B49886AFDF7A6FB04460B46B3
:1030F000082001210222CDE9002102902246202150
:10310000602000F015FC102380222021602000F0B8
:103110007FFB00F089FD69E0FFF7BEFA02280ED1BF
:103120003C49886A4049FDF717F93A498862886A3C
:103130000021FDF7E1FB02D13C4936488162FFF7EF
:10314000C7FA03280ED13349886A3749FDF7B2F828
:1031500030498862886A3649FDF7CEFB02D133498F
:103160002C488162FFF7D0FA042801D100203EBD2F
:1031700000F046F908231EA20021084600F03CFD9D
:10318000082320A21021002000F036FD2149486AC2
:10319000FDF752FB04460B46082001210222CDE92F
:1031A0000021029022461021602000F0C1FB08237C
:1031B00019A22021002000F01FFD1649886AFDF7A2
:1031C0003BFB04460B46082001210222CDE90021E9
:1031D000029022462021602000F0AAFB10238022CA
:1031E0002021602000F014FB00F01EFD94E7000099
:1031F0002D3E2020202020202020202020202020A4
:10320000000000004C696768745F4C6F7765723A24
:1032100000000000740B00204C696768745F5570F3
:103220007065723A000000000000A0400000F0410C
:103230000000AA4210B50D480078012815D1FFF70B
:1032400047FA032811D10A480078401C0849087041
:10325000087800EBD0714910A0EB4101012902D19F
:1032600003F04CFA01E003F041FA10BD2400002005
:103270002500002000BFFEE710B5054890F80202C7
:10328000012803D1FEF7F0FFFEF7A0FC10BD0000FF
:103290004801002010B50121C80600F0D1FD012130
:1032A000080700F0CDFD012000F012FD012000F024
:1032B0006FFE00BF612000F04DFE0128FAD14002F0
:1032C00000F072FE012000F069FE00F0BBFE00F08D
:1032D000AFFE49F63F4000F09BFE00F0A9FE00F073
:1032E00025F810BD10B58CB000F07AFE00F5E14075
:1032F0000B900BA8FDF78CFB04462C222146684658
:10330000FCF764FF059800F26C7007490880049888
:10331000401C4880039888800298C88001980881E2
:10332000009848810CB010BDCC00002010B58CB0C6
:1033300010480088A0F26C7006900E484088401E2D
:1033400005900C48808804900A48C088039009487A
:103350000089029007484089019001A8FCF7E2FE2D
:10336000A0F5E144204600F045FE00F061FE0CB0FF
:1033700010BD0000CC0000207047000070B5002197
:1033800000230F22C47804B3154C246804F4E064CD
:10339000C4F5E064210AC1F10403CA40447804FA88
:1033A00003F184781440214309010E4C0678A1559D
:1033B000047804F01F050124AC4005786D11AD00C0
:1033C00005F1E025C5F8004109E0047804F01F0587
:1033D0000124AC40044D0678761145F8264070BDB6
:1033E0000CED00E000E400E080E100E00249014370
:1033F000024A1160704700000000FA050CED00E081
:1034000000200CE0002106E00022064B03EBC01375
:103410005A544A1CD1B28029F6DB421CD0B208288B
:10342000F0DB7047F80500202DE9F04304460D4617
:1034300016461F467F2C01DDBDE8F0833F2D00DDE1
:10344000FAE7A119802902DDC4F18001CEB2E919A1
:10345000402902DDC5F14001CFB2284630E02346C5
:1034600029E04FEAE07C00EB5C7C4FEAEC0CDFF8F3
:103470005C8008EBCC1C1CF803C002464FEAE078E5
:1034800000EB58784FEAE808A0EBC8094FF00108B4
:1034900008FA09F82CEA080C01464FEAE07800EB3C
:1034A00058784FEAE808DFF8249009EBC81808F8C4
:1034B00003C0591CCBB2A1199942D2DC411CC8B23D
:1034C000E9198142CBDC00BFB6E70000F805002017
:1034D0002DE9FF4F86B0069F079EDDF82080DDF8BE
:1034E00024900020019000904E450FD1474502DD09
:1034F000BA464746D0463C4605E0F1B2E0B200F09D
:10350000A3F8601C04B24445F7DD99E047450FD1AC
:103510004E4502DDB2464E46D146354605E0E9B29B
:10352000F8B200F091F8681C05B24D45F7DD87E070
:10353000474505DDBA464746D046B2464E46D146D7
:103540004E4507DD704206B2C9F100000FFA80F95E
:1035500001200190A9EB0600A8EB0701884207DDD6
:10356000BA4637465646C246C846D1460120009064
:10357000A8EB070000B20590A9EB06000FFA80FB4C
:103580004FEA4B0000B203900598ABEB00004000FF
:1035900000B202900598C0EB4B0000B204903C468C
:1035A0003546019838B1009828B16242D1B2E8B2EC
:1035B00000F04AF812E0019828B16A42D1B2E0B2B4
:1035C00000F042F80AE0009820B1E1B2E8B200F061
:1035D0003BF803E0E9B2E0B200F036F82EE0601C00
:1035E00004B20498002805DADDE90310084400B2AB
:1035F000049006E0681C05B202990498084400B2E1
:103600000490019838B1009828B16242D1B2E8B272
:1036100000F01AF812E0019828B16A42D1B2E0B283
:1036200000F012F80AE0009820B1E1B2E8B200F030
:103630000BF803E0E9B2E0B200F006F84445CEDB57
:103640000AB0BDE8F08F000070B503467F2B00DDA7
:1036500070BD3F2900DDFBE7CC1701EB5474E4108B
:103660000C4D05EBC414E45C0A46CD1701EB55750F
:10367000ED10A1EBC5060125B5402C430846CD173A
:1036800001EB5575ED10034E06EBC515EC5400BF6C
:10369000DEE70000F805002038B5002406E000252C
:1036A00000E06D1CB5F57A7FFBD3641CB4F57A7F1E
:1036B000F5D30121082000F0D3FB14208DF803007E
:1036C00003208DF802004FF48070ADF800006946C9
:1036D0000848FEF797FE4FF40070ADF80000694609
:1036E0000448FEF78FFE012000F0B2FA012000F03E
:1036F000BBFA38BD000C014070B50546002411E04E
:1037000080212141294009B1012100E00021084622
:1037100000F0AAFA012000F09BFA002000F098FACD
:10372000601CC4B2082CEBDB012000F091FA0020F1
:1037300000F08EFA70BD10B5012000F095FA01205E
:1037400000F086FA002000F08FFA002000F080FAE6
:1037500010BD10B5002000F087FA012000F078FAC3
:10376000012000F081FA10BD10B5FFF795FFAE20E3
:1037700000F086FAD52000F083FA802000F080FA6D
:10378000A82000F07DFA3F2000F07AFAD32000F064
:1037900077FA002000F074FA402000F071FAA120BE
:1037A00000F06EFAC82000F06BFADA2000F068FA38
:1037B000122000F065FA812000F062FACF2000F0BC
:1037C0005FFAD92000F05CFAF12000F059FADB2012
:1037D00000F056FA302000F053FAA42000F050FA1E
:1037E000A62000F04DFA8D2000F04AFA142000F0D7
:1037F00047FAAF2000F044FA10BD10B50246012090
:1038000000E050430B1EA1F10101FAD110BD0000F0
:103810002DE9F04304460D4616461F467F2C01DD78
:10382000BDE8F0833F2D00DDFAE7A119802902DD14
:10383000C4F18001CEB2E919402902DDC5F1400191
:10384000CFB2284630E0234629E04FEAE07C00EB87
:103850005C7C4FEAEC0CDFF85C8008EBCC1C1CF8BD
:1038600003C002464FEAE07800EB58784FEAE808D8
:10387000A0EBC8094FF0010808FA09F88CEA080C17
:1038800001464FEAE07800EB58784FEAE808DFF8A5
:10389000249009EBC81808F803C0591CCBB2A11931
:1038A0009942D2DC411CC8B2E9198142CBDC00BF8D
:1038B000B6E70000F805002070B505460C4645F057
:1038C000B00000F0DDF9102141EA141000F0D8F941
:1038D00004F00F0000F0D4F970BD0000F8B5064602
:1038E0000F4614461D46082D0CD1A4F120000E49A8
:1038F00001EB00101023082239460090304600F0FA
:10390000BFF80FE0062D0DD1A4F1200000EB400020
:10391000064901EB40000823062239460090304654
:1039200000F0AEF8F8BD00004C6900083C6F0008DC
:103930002DE9FF5F84B0074614461D46DDE9128A73
:10394000149E0022134620462946FCF7A1FF44D8C6
:1039500020462946FCF757FF834643465A460096C1
:103960003846059900F022F908FB0671C8B23346C3
:103970002E220599FFF7B2FF20462946FCF743FFA8
:103980008346FCF706FF22462B46CDE90201FCF7F1
:10399000FDFD04460D4651460A20FFF72EFF8146E5
:1039A0004846FCF7F6FE22462B46CDE90001FCF71F
:1039B000F0FDCDE90201FCF726FFB0FBF9F109FBB0
:1039C000110B08F1010101FB0671C8B253465A46BA
:1039D0000096059900F0EAF84EE033462D2238466D
:1039E0000599FFF77BFF85F0004520462946FCF747
:1039F0000AFF8346B919C8B243465A46009605994C
:103A000000F0D4F808F1010101FB0671C8B2334699
:103A10002E220599FFF762FF20462946FCF7F3FEA8
:103A20008346FCF7B6FE22462B46CDE90201FCF7A1
:103A3000ADFD04460D4651460A20FFF7DEFE8146E5
:103A40004846FCF7A6FE22462B46CDE90001FCF7CE
:103A5000A0FDCDE90201FCF7D6FEB0FBF9F109FBB0
:103A6000110B08F1020101FB0671C8B253465A4618
:103A70000096059900F09AF808B0BDE8F09F0000A4
:103A80002DE9F04707460C4690469946DDF820A000
:103A90007F2F01DDBDE8F0873F2C00DDFAE74B46C4
:103AA000424621463846FFF7BFFC002570E000265D
:103AB00069E0B8197F2800DD67E0E11704EB517178
:103AC00005EBE101072900DDE4E72046E21704EBFE
:103AD000527205EBE202344B03EBC212BB19D25C0B
:103AE0002146E31704EB5373DB10A4EBC30305FB80
:103AF000086C1AF80CC00CFA03FC42EA0C02E3173B
:103B000004EB537305EBE303DFF89CC00CEBC3132A
:103B100007EB060C03F80C20E11704EB517105EBE1
:103B2000E101491C072900DD2BE02046E21704EBE8
:103B3000527205EBE202521C1B4B03EBC212BB1983
:103B4000D25C2146E31704EB5373DB10A4EBC303F1
:103B5000C3F1080305FB086C1AF80CC04CFA03FC0F
:103B600042EA0C02E31704EB537305EBE3035B1C1F
:103B7000DFF834C00CEBC31307EB060C03F80C2082
:103B800000BF701CC6B2464593DB00BF681CC5B2BF
:103B9000A9F10100C11700EB5171012202EBE10113
:103BA000A94284DC00BF75E7F80500202DE9F04745
:103BB0000646894617461D46DDF82080002417E09A
:103BC000281B411E0A20FFF718FEB7FBF0F00A2160
:103BD000B0FBF1F201FB120000F1300A04FB0861B6
:103BE000C8B2434652464946FFF778FE601CC4B24D
:103BF000AC42E5DBBDE8F0872DE9F041064688469A
:103C000015461F46002409E02A5D04FB0761C8B27F
:103C10003B464146FFF762FE601CC4B2285D0028A7
:103C2000F2D1BDE8F081000010B500240BE00021C6
:103C30002046FFF741FE054901EBC410802100F04A
:103C40002FF8601CC4B2082CF1DB10BDF805002071
:103C500010B5044622464FF480710248FEF7B3FCCB
:103C600010BD0000000C014010B5044622464FF480
:103C700000710248FEF7A7FC10BD0000000C0140D7
:103C800010B50446FFF757FD7820FFF735FD0020FB
:103C9000FFF732FD2046FFF72FFDFFF75AFD10BD5D
:103CA00070B505460E46FFF746FD7820FFF724FD68
:103CB0004020FFF721FD002404E0285DFFF71CFDF4
:103CC000601CC4B2B442F8DBFFF743FD70BD0000D6
:103CD000014908627047000000000E427047000072
:103CE00010B52648B0F8420025490988884220D0FE
:103CF00024A000F04EFA2149B1F84200012100F061
:103D00002BFA2AA000F045FA1C48B0F8420000281F
:103D100005DD02F0F3FC26A000F03BFA04E002F01F
:103D2000E5FC29A000F035FA1448B0F84200144927
:103D30000880124890F840002949097888421CD030
:103D400028A000F026FA0D4991F84000012100F06A
:103D500003FA16A000F01DFA084890F84000002869
:103D600003DD29A000F015FA02E02BA000F011FA03
:103D7000024890F840001A49087010BD740B0020EA
:103D800030010020E4BA91E7ABAFE68EA7E588B634
:103D90003A20E7BBA7E794B5E599A8E78AB6E6809D
:103DA00081E58F98E69BB4E4B8BA20000D0A0000C4
:103DB000E7BBA7E794B5E599A8E5B7B2E5BC80E510
:103DC00090AF0D0A00000000E7BBA7E794B5E599A6
:103DD000A8E5B7B2E585B3E997AD0D0A000000008C
:103DE00032010020E4BA91E7ABAFE68EA7E588B6D2
:103DF0003A204C4544E78AB6E68081E58F98E69BF9
:103E0000B4E4B8BA200000004C4544E5B7B2E5BCC4
:103E100080E590AF0D0A00004C4544E5B7B2E5855A
:103E2000B3E997AD0D0A000001460020034A50682F
:103E300020F44040084350607047000000100240EA
:103E400029B1064AD2690243044BDA6104E0034A0D
:103E5000D2698243014BDA617047000000100240D2
:103E600029B1064A92690243044B9A6104E0034A6D
:103E700092698243014B9A61704700000010024032
:103E800030B500210022002400232D4D6D6805F07F
:103E90000C0121B1042905D0082923D105E0294DC1
:103EA000056022E0274D05601FE0254D6D6805F493
:103EB0007012234D6D6805F48034022505EB9242A3
:103EC0001CB9214D554305600BE01D4D6D6805F48F
:103ED00000351DB11C4D5543056002E0194D554399
:103EE000056002E0174D056000BF00BF144D6D680E
:103EF00005F0F0010909154D6B5C0568DD40456072
:103F00000F4D6D6805F4E061090A104D6B5C456862
:103F1000DD4085600A4D6D6805F46051C90A0B4D9E
:103F20006B5C4568DD40C560054D6D6805F440413A
:103F3000890B074D6B5CC568B5FBF3F5056130BDBA
:103F40000010024000127A0000093D00000000202D
:103F50001000002010B501460022002300204A1165
:103F6000012A02D1094C236806E0022A02D1074C3B
:103F7000236A01E0054C636A01F01F0201249440AA
:103F80001C400CB1012000E0002010BD00100240D8
:103F900001490860704700008004424201490860FE
:103FA000704700003C0442420249096A0143014A49
:103FB00011627047001002400348008840F0100072
:103FC0000149088070470000042800400348008829
:103FD0004FF6EF71084001490880704704280040FF
:103FE000002103480188001F008841EA0040704713
:103FF0001C28004000B50246FFF7DEFF100C034905
:104000000880091D0A80FFF7E1FF00BD1828004065
:1040100000B50246FFF7D0FFC2F303400349088012
:10402000091D0A80FFF7D2FF00BD000008280040EC
:1040300000BF0348008800F020000028F9D0704736
:1040400004280040074800884FF6F77108400549EA
:10405000088000BF0348008800F008000028F9D05D
:1040600070470000042800407047000000B587B08A
:1040700001218803FFF7F4FE01210420FFF7F0FE81
:1040800018208DF81B004FF40070ADF818000320C5
:104090008DF81A0006A92148FEF7B4F948208DF8DA
:1040A0001B004FF48060ADF8180003208DF81A0053
:1040B00006A91A48FEF7A6F94FF416500290002000
:1040C000ADF814000C20ADF812000020ADF810007F
:1040D000ADF80E00ADF80C0002A9114801F042FA4B
:1040E000012240F225510E4801F016FA4FF4A0606B
:1040F000FFF77CF925208DF8040001208DF80700DA
:104100008DF805008DF8060001A8FFF737F90121A9
:10411000034801F0BEF907B000BD000000080140EF
:104120000038014010B50246012000E050430B1E4C
:10413000A1F10101FAD110BD10B504462146054890
:1041400001F081FA00BF8021024801F0AEF9002899
:10415000F9D010BD003801402DE9F04106460C466B
:10416000002512E0601B411E0A20FFF7DBFFB6FBB3
:10417000F0F00A21B0FBF1F201FB120000F1300770
:104180003846FFF7D9FF681CC5B2A542EADBBDE897
:10419000F08170B50446002504E0605DFFF7CCFFB8
:1041A000681CC5B2605D0028F7D170BD10B500F085
:1041B00001F810BD0CB50020019000903348006854
:1041C00040F480303149086000BF3048006800F496
:1041D000003000900198401C0190009818B9019897
:1041E000B0F5A06FF1D12948006800F4003010B19B
:1041F0000120009001E0002000900098012843D1A8
:104200002348006840F01000214908600846006813
:1042100020F0030008600846006840F002000860D3
:104220001A4840681949486008464068486008468E
:10423000406840F4806048600846406820F47C1084
:1042400048600846406840F4E81048600846006846
:1042500040F08070086000BF0C48006800F00070FB
:104260000028F9D00948406820F003000749486059
:104270000846406840F00200486000BF03484068BC
:1042800000F00C000828F9D10CBD0000001002401D
:10429000002002402DE9F04727480078FCF763FA38
:1042A0002649274A127841F8220025490978481CF6
:1042B000C11700EB91618911A0EB8111204A1170A7
:1042C0002823802214210020FFF7AEF801242EE0DD
:1042D00060064FEA1068601C4006050E174951F849
:1042E00024004FF08041FCF76FF88146FCF777FA25
:1042F000C0F13C00C6B2114A611C52F821004FF0D7
:104300008041FCF761F88146FCF769FAC0F13C0096
:10431000C7B2802D09DA402E07DA402F05DA3B4676
:104320002A4631464046FFF7D3F8601CC4B2402C01
:10433000CEDBBDE8F087000024010020B80D00208E
:104340003301002010B50446FDF7E6F94620FDF7DD
:10435000B5F92046FDF7B2F9FDF7FCF910BD0000F4
:104360003EB5FFF74DF8082353A200210846FFF79A
:1043700043FC082355A210210020FFF73DFC5649BD
:10438000C869FCF759FA04460B46082001210222AD
:10439000CDE900210290224610216020FFF7C8FAE3
:1043A00008234EA220210020FFF726FC4A49086A74
:1043B000FCF742FA04460B46082001210222CDE90F
:1043C00000210290224620216020FFF7B1FA10233D
:1043D000802219466020FFF71BFAFFF725FC69E0F1
:1043E000FEF75AF902280ED13B49C8693E49FBF74E
:1043F000B3FF3949C861C8690021FCF77DFA02D1D1
:104400003A493548C161FEF763F903280ED13249B4
:10441000C8693549FBF74EFF2F49C861C86934495F
:10442000FCF76AFA02D133492B48C161FEF76CF9F7
:10443000042801D100203EBDFEF7E2FF08231EA2A2
:1044400000210846FFF7D8FB082320A210210020F6
:10445000FFF7D2FB2049C869FCF7EEF904460B468A
:10446000082001210222CDE90021029022461021DC
:104470006020FFF75DFA082318A220210020FFF733
:10448000BBFB1549086AFCF7D7F904460B46082020
:1044900001210222CDE90021029022462021602044
:1044A000FFF746FA1023802219466020FFF7B0F983
:1044B000FFF7BAFB94E700002D3E202020202020AB
:1044C000202020202020202000000000536F696C55
:1044D0005F4C6F7765723A00740B0020536F696C04
:1044E0005F55707065723A000000A04000004842BD
:1044F0000000D2420000F0412DE9FE430124254690
:10450000FF26FEF77DFF08235BA200210846FFF788
:1045100073FB08235DA210210020FFF76DFB5E49AD
:10452000C869FCF789F907460B46082001210222D9
:10453000CDE9002102903A4610216020FFF7F8F9FA
:10454000082356A220210020FFF756FB5249086A93
:10455000FCF772F907460B46082001210222CDE93B
:10456000002102903A4620216020FFF7E1F9601E09
:104570000007010E102380220020FFF749F9FFF702
:1045800053FB77E0FEF788F8022803D1601EC4B21F
:1045900004B90324FEF79CF8032804D1601CC4B2BC
:1045A000042C00D10124FEF7AFF8042800D12646E0
:1045B000A54240D0FEF724FF08232FA20021084681
:1045C000FFF71AFB082331A210210020FFF714FB8C
:1045D0003149C869FCF730F907460B46082001212C
:1045E0000222CDE9002102903A4610216020FFF717
:1045F0009FF9082329A220210020FFF7FDFA264970
:10460000086AFCF719F907460B4608200121022227
:10461000CDE9002102903A4620216020FFF788F979
:10462000601E0007010E102380220020FFF7F0F823
:104630002546FFF7F9FA012E04D0022E05D0032EED
:1046400017D10CE00020BDE8FE83FFF789FEFFF7DD
:1046500087FE18B9FEF7D4FE0026002509E000F019
:1046600023F800F021F818B9FEF7CAFE002600254D
:1046700000BF00BF86E700002D3E20202020202024
:10468000202020202020202000000000536F696C93
:104690005F4C6F7765723A00740B0020536F696C42
:1046A0005F55707065723A003EB5FEF7A9FE0823AB
:1046B00053A200210846FFF79FFA082355A21021B4
:1046C0000020FFF799FA5649C869FCF7B5F8044687
:1046D0000B46082001210222CDE90021029022464A
:1046E00010216020FFF724F908234EA2202100208A
:1046F000FFF782FA4A49086AFCF79EF804460B461F
:10470000082001210222CDE9002102902246202129
:104710006020FFF70DF91023802220216020FFF791
:1047200077F8FFF781FA69E0FDF7B6FF02280ED1AE
:104730003B49086A3E49FBF70FFE39490862086A9F
:104740000021FCF7D9F802D13A4935480162FDF75A
:10475000BFFF03280ED13249086A3549FBF7AAFD8D
:104760002F490862086A3449FCF7C6F802D131497A
:104770002B480162FDF7C8FF042801D100203EBD8F
:10478000FEF73EFE08231EA200210846FFF734FA7A
:10479000082320A210210020FFF72EFA2049C86923
:1047A000FCF74AF804460B46082001210222CDE915
:1047B00000210290224610216020FFF7B9F808235B
:1047C00018A220210020FFF717FA1549086AFCF704
:1047D00033F804460B46082001210222CDE90021CE
:1047E0000290224620216020FFF7A2F810238022A9
:1047F00020216020FFF70CF8FFF716FA94E700007D
:104800002D3E20202020202020202020202020207D
:1048100000000000536F696C5F4C6F7765723A005F
:10482000740B0020536F696C5F55707065723A00AD
:104830000000A040000048420000D24210B500F045
:1048400097F910BD10B51348006840F001001149F8
:10485000086008464068104908400E49486008460C
:1048600000680E4908400B4908600846006820F4BB
:10487000802008600846406820F4FE0048604FF43D
:104880001F008860FFF792FC4FF000600449086049
:1048900010BD0000001002400000FFF8FFFFF6FE10
:1048A00008ED00E02DE9F04188B005460E461746B8
:1048B0009846002428E00120A040154909880840B6
:1048C00000BB1C2101A8FBF79AFC1248CDE9015658
:1048D0000068CDF8188003908DF81C70C4EBC401FB
:1048E0000D4A02EB81001C2201A9FBF76FFC01209D
:1048F000A04007490988084305490880204608B0B8
:10490000BDE8F081601CC4B20A2CD4DBFF20F6E7BE
:10491000EE000020E80000205C0A002010B54FF4F3
:104920008C710548FBF76BFC0020044908600449C2
:1049300008800449088010BD5C0A0020E8000020BF
:10494000EC000020EE00002010B526A300220A2172
:104950002648FFF7A7FF2649087026A30222322126
:104960002648FFF79FFF2649087026A301226421ED
:104970002648FFF797FF2649087026A301224FF427
:104980007A712648FFF78EFF2549087025A3022279
:1049900041F288312648FFF785FF2649087026A393
:1049A000022247F230512748FFF77CFF2649087062
:1049B00026A3012264212948FFF774FF044628A397
:1049C000032242F210712A48FFF76CFF2949087050
:1049D00029A302224FF4FA612B48FFF763FF2B490A
:1049E000087010BD4B65795363616E007932000821
:1049F000270100204765744461746100D1250008D7
:104A000028010020416C61726D00000069140008EB
:104A100029010020495744475F494400BD2B000845
:104A20002B010020574946495F496E697400000018
:104A3000F15700082C01002075706C6F61644944C7
:104A4000000000000D6700082D010020436C6F7509
:104A500064436F6E74726F6C00000000E13C0008EC
:104A6000455350383236364D6F6E69746F720000A0
:104A7000915100082E01002073686F7754656D70A6
:104A80004875696D00000000515600082F01002094
:104A90002DE9F0413248008808B9BDE8F0810025D1
:104AA0005AE0002454E00120A0402E490988084023
:104AB00000284BD00120A040294909880840E8B3CC
:104AC000C4EBC400284901EB8000007EA8423DD120
:104AD000C4EBC40001EB8000007C78BB00BF012068
:104AE000A0401F49098881431D48018000BF012063
:104AF000C4EBC4011C4A02EB810108741B4807681F
:104B0000C4EBC40152F82100804718480068C61B56
:104B1000C4EBC400144901EB8000C068B04204D269
:104B2000C4EBC40001EB8000C66010480068C4EB11
:104B3000C4010D4A02EB8101886000E006E000201C
:104B4000C4EBC40102EB8101087400BF601CC4B255
:104B50000A2CA8DB681CC5B2042DA2DB00BF9CE7B1
:104B6000EC000020EE0000205C0A0020E80000209D
:104B700027480068401C28B125480068401C24498B
:104B8000086002E000202249086000203DE0012189
:104B90008140204A12881140A9B3C0EBC0021E4BCD
:104BA00003EB820292681A4B1B689A4209D8C0EB49
:104BB000C002194B03EB82029268154B1B68991ACD
:104BC0000BE0C0EBC002144B03EB82029268C2F10F
:104BD000FF320F4B1B681A44511CC0EBC0020E4B36
:104BE00003EB820252688A420CD8C0EBC00203EB8E
:104BF0008202127C32B901228240084B1B881A4380
:104C0000064B1A8000BF411CC8B20A28BFDB7047A0
:104C1000E8000020EE0000205C0A0020EC000020EC
:104C20002DE9FE434FF00108FEF7EAFB082360A2DE
:104C300000210846FEF7E0FF082362A210210020B1
:104C4000FEF7DAFF62480068FBF7F6FD04460B4604
:104C5000082001210222CDE90021029022461021E4
:104C60006020FEF765FE08235AA220210020FEF7EF
:104C7000C3FF5B480068FBF7DFFD04460B460820D6
:104C800001210222CDE9002102902246202160204C
:104C9000FEF74EFE1023802219466020FEF7B8FD75
:104CA000FEF7C2FF82E0FDF7F7FC02281AD1484860
:104CB0000068FBF7C1FD064600224A4BFBF763FC88
:104CC0000446FBF7FDFD4249086008460068FBF713
:104CD000B3FD04460022444BFBF7C2FD02D143481A
:104CE0003B490860FDF7F4FC03281AD138480068F6
:104CF000FBF7A2FD044600223A4BFBF7A3FB064656
:104D0000FBF7DEFD3249086008460068FBF794FDBA
:104D100004460022364BFBF7A3FD02D135482C494F
:104D20000860FDF7F1FC042802D10020BDE8FE83F5
:104D3000FEF766FB08231EA200210846FEF75CFF73
:104D4000082320A210210020FEF756FF204800680B
:104D5000FBF772FD04460B46082001210222CDE933
:104D600000210290224610216020FEF7E1FD082379
:104D700018A220210020FEF73FFF19480068FBF72A
:104D80005BFD04460B46082001210222CDE90021EB
:104D90000290224620216020FEF7CAFD10238022C7
:104DA00019466020FEF734FDFEF73EFF7BE700006A
:104DB0002D3E2020202020202020202020202020C8
:104DC0000000000054656D705F4C696D69743A00B5
:104DD0002C00002054656D705F55707065723A004C
:104DE000300000200000E03F008033400000F04130
:104DF00000803E400000A0412DE9FE4301242546ED
:104E00004FF0FF08FEF7FCFA08235EA200210846D7
:104E1000FEF7F2FE082360A210210020FEF7ECFE50
:104E200060480068FBF708FD06460B460820012194
:104E30000222CDE900210290324610216020FEF7C7
:104E400077FD082358A220210020FEF7D5FE5948FF
:104E50000068FBF7F1FC06460B4608200121022200
:104E6000CDE900210290324620216020FEF760FD4E
:104E7000601E0007010E102380220020FEF7C8FCF0
:104E8000FEF7D2FE7CE0FDF707FC022803D1601E8E
:104E9000C4B204B90324FDF71BFC032804D1601C31
:104EA000C4B2042C00D10124FDF72EFC042800D14B
:104EB000A046A54240D0FEF7A3FA082331A2002164
:104EC0000846FEF799FE082333A210210020FEF7C2
:104ED00093FE34480068FBF7AFFC06460B460820FB
:104EE00001210222CDE900210290324610216020EA
:104EF000FEF71EFD08232CA220210020FEF77CFED9
:104F00002C480068FBF798FC06460B460820012158
:104F10000222CDE900210290324620216020FEF7D6
:104F200007FD601E0007010E102380220020FEF7FF
:104F30006FFC2546FEF778FEB8F1010F06D0B8F1F8
:104F4000020F06D0B8F1030F19D10DE00020BDE823
:104F5000FE83FFF765FEFFF763FE20B94FF0000800
:104F60000025FEF74DFA0AE000F026F800F024F8DC
:104F700020B94FF000080025FEF742FA00BF00BF3D
:104F800081E700002D3E202020202020202020200E
:104F9000202020200000000054656D705F4C6F776A
:104FA00065723A002C00002054656D705F5570707A
:104FB00065723A00300000202DE9FE434FF00108F1
:104FC000FEF71EFA082360A200210846FEF714FE31
:104FD000082362A210210020FEF70EFE624800683E
:104FE000FBF72AFC04460B46082001210222CDE9EA
:104FF00000210290224610216020FEF799FC082330
:105000005AA220210020FEF7F7FD5B480068FBF75D
:1050100013FC04460B46082001210222CDE90021A1
:105020000290224620216020FEF782FC102380227D
:1050300020216020FEF7ECFBFEF7F6FD82E0FDF795
:105040002BFB02281AD14C480068FBF7F5FB0646FB
:1050500000224A4BFBF797FA0446FBF731FC46491E
:10506000086008460068FBF7E7FB04460022444B53
:10507000FBF7F6FB02D143483F490860FDF728FBE8
:1050800003281AD13C480068FBF7D6FB04460022EF
:105090003A4BFBF7D7F90646FBF712FC3649086096
:1050A00008460068FBF7C8FB04460022364BFBF7B6
:1050B000D7FB02D1354830490860FDF725FB0428AD
:1050C00002D10020BDE8FE83FEF79AF908231EA254
:1050D00000210846FEF790FD082320A210210020A1
:1050E000FEF78AFD20480068FBF7A6FB04460B4646
:1050F000082001210222CDE9002102902246102140
:105100006020FEF715FC082318A220210020FEF7DE
:1051100073FD19480068FBF78FFB04460B46082017
:1051200001210222CDE900210290224620216020A7
:10513000FEF7FEFB1023802220216020FEF768FB93
:10514000FEF772FD7BE700002D3E2020202020206E
:1051500020202020202020200000000054656D70B9
:105160005F4C696D69743A002C00002054656D70C5
:105170005F55707065723A00300000200000E03F1B
:105180000080384000002042004044400000C841F8
:1051900070B500BF30480068044630480068201AE7
:1051A00042F21071884256D32DA0FEF7F2FF34A0D0
:1051B000FEF7EFFF3448FEF7ECFF34A0FEF7E9FFFF
:1051C0003348FEF7E6FF33A0FEF7E3FF32A0FEF719
:1051D000E0FF34480078022803D133A0FEF7D9FF5E
:1051E0000AE030480078012803D133A0FEF7D1FF50
:1051F00002E039A0FEF7CDFF20A0FEF7CAFF39A0DC
:10520000FEF7C7FF3A490868FBF7E9FA05460221AD
:10521000FEF7A2FF37A0FEF7BCFF35494868FBF751
:10522000DEFA05460221FEF797FF36A0FEF7B1FF32
:1052300035A0FEF7AEFF01211A480078FEF78CFF7B
:105240000EA0FEF7A6FF3448FEF7A3FF33A0FEF73B
:10525000A0FF0248046070BDE8000020400100206B
:105260000D0A3D3D3D20E7B3BBE7BB9FE78AB6E6AD
:105270008081E4BFA1E681AF203D3D3D0D0A0000E5
:10528000576946693A2000004400002020280000A9
:1052900076000020290D0A00E5B7B4E6B395E4BA1C
:1052A000913A2000F1000020E4BA91E7ABAFE5B7F6
:1052B000B2E8BF9EE68EA50057694669E5B7B2E839
:1052C000BF9EE68EA5EFBC8CE69CAAE8BF9EE68E4C
:1052D000A5E4BA91E7ABAF00E69CAAE8BF9EE68ED4
:1052E000A5000000E6B8A9E5BAA63A200000000033
:1052F000740B0020C2B0432020E6B9BFE5BAA63A3D
:1053000020000000250D0A00636F6E6E6563745FF8
:10531000666C61673A200000747900083D3D3D3DB0
:105320003D3D3D3D3D3D3D3D3D3D3D3D3D3D3D0DDD
:105330000A0D0A0010B540F22551214800F0C2F8CC
:1053400001283CD11E4800F079F9C4B21D4800780C
:1053500058B9402C2DD11C48007850BB0120194968
:10536000087000201949087023E0164800780128C9
:105370000FD10D2C03D102201249087019E01448F6
:1053800012490978445411480078401C0F490870AC
:105390000FE00C48007802280BD10A2C09D100201C
:1053A000084908700A49094A1278885401200649B8
:1053B000087040F22551024800F05CF800BF10BDB3
:1053C00000380140D9000020D8000020DA00002079
:1053D000F809002010B540F225511C4800F072F881
:1053E000D0B11A4800F02AF9C4B21948B0F8000246
:1053F000B0F5FF7F0ADC1648B0F80012B0F80002E2
:10540000401C134AA2F800021046445440F22551B1
:105410000E4800F02FF800BF40F224410B4800F086
:1054200051F888B1094800F009F900200849B1F89D
:105430000012074A50540120114681F8020240F23E
:105440002441024800F016F810BD0000004400405E
:105450004801002010B5044600BF4021044800F078
:1054600024F80028F9D02146014800F0ECF810BDDE
:105470000044004010B50022002340F66A14A14207
:1054800000D100BF0A1201249440A3B2DC4304807F
:1054900010BD21B1828942F40052828104E08289E8
:1054A0004DF6FF731A408281704702460020B1F525
:1054B000007F00D100BF13880B400BB1012000E03A
:1054C0000020704770B5024600240023002500200C
:1054D00040F66A16B14200D100BFC1F3421501F097
:1054E0001F03012606FA03F3012D02D196893340EA
:1054F00006E0022D02D1168A334001E0968A33403D
:105500000C12012606FA04F41688344013B10CB1CB
:10551000012000E0002070BDF0B503460024002605
:105520000025002040F66A17B94200D100BF184696
:10553000C1F3421401F01F06012707FA06F5012CFA
:1055400001D10C3004E0022C01D1103000E0143005
:105550001AB107682F43076002E00768AF4307608E
:10556000F0BD00002DE9F04786B005460E46002448
:10557000A24600BFA1460027B08900B100BF2F4658
:105580002C8A4CF6FF700440F08804432C82AC89CE
:105590004EF6F3100440B0883189084371890843FE
:1055A0000443AC81AC8A4FF6FF400440B089044309
:1055B000AC8201A8FEF764FC1F48874202D1DDF8E7
:1055C00010A001E0DDF80CA0A88900F4004040B173
:1055D0000AEBCA0000EB0A1031684900B0FBF1F891
:1055E00007E00AEBCA0000EB0A1031688900B0FB43
:1055F000F1F86420B8FBF0F004012009642101FBFC
:105600001089A88900F4004040B1322000EBC900A5
:10561000B0FBF1F000F00700044308E0322000EB9B
:1056200009106421B0FBF1F000F00F0004432C815D
:1056300006B0BDE8F08700000038014001468888C8
:10564000C0F308007047C1F3080282807047000071
:105650003EB549494948FCF772FA03210720FDF796
:105660006FF84749086000F0DDFF464908600A21ED
:105670000520FCF7C7FF4449086040480078FBF765
:1056800072F8424908603C480078FBF76CF83F49E3
:1056900048603B48006888603A480068C8603A48FB
:1056A000006808611023802200210846FDF7BCFE37
:1056B000062337A200210846FEF79EFA062335A2EC
:1056C00000212A20FEF798FA062333A200214E205B
:1056D000FEF792FA062331A208210020FEF78CFA89
:1056E000062330A208213620FEF786FA0620022380
:1056F00000902248027800211820FEF757FA062071
:10570000022300901C48027800214220FEF74EFA46
:105710001B480068FBF790F804460B460620012161
:105720000222CDE900210290224600216620FEF7E8
:10573000FFF814480068FBF752F8044606200223DD
:105740002246082100902420FEF730FA0E48006817
:10575000FBF772F804460B46062002210091224610
:10576000CDE9011008215420FEF7E2F8FEF792FD82
:10577000FEF75AFA3EBD000025010020240100205A
:1057800034010020380100203C010020740B00206F
:105790007465700068756900536F69004C696768CB
:1057A0007400000057696E640000000000BFFEE74F
:1057B00000B5ADF5017D4FF4007101A8FAF71FFDAA
:1057C0004FF4007101A8FAF71AFD05A101A800F035
:1057D00055F801A800F02EF80DF5017D00BD000080
:1057E000434D443A4745545F54494D457D000000C0
:1057F00010B50A480078022802D1FFF7D9FF0CE063
:1058000006480078012803D105A0FCF71FF804E042
:105810000248007808B9FBF7E5FF10BDF100002051
:10582000434D443A434F4E4E45435445445F5443E1
:105830005000000010B5044603E014F8010BFFF718
:1058400009FE20780028F8D110BD00000FB41CB567
:105850000246002007AC00290BD0491ECDE90021EB
:10586000054B6A462146069800F006F9009A002189
:1058700011701CBC5DF814FBA76100080FB4084B45
:1058800010B504A902AA039800F0F6F8044602A98C
:10589000002000F093FC204610BC5DF814FB0000D3
:1058A000BD610008004870474401002001480068BD
:1058B000704700004401002002E008C8121F08C120
:1058C000002AFAD170477047002001E001C1121F81
:1058D000002AFBD1704700000149086070470000B2
:1058E000440100202DE9FF5F82B00021DDE9043092
:1058F000020DDDF840B0034318D044F61050A2F278
:10590000FF3242431514119801281FD0A5EB0B005C
:10591000401C5FEA000A4FF000064E4FDFF8389156
:10592000B046504615D5CAF1000413E01198012481
:105930004AA3012801D16FEA0B010298119AC0E92C
:105940000031C0E9024206B0BDE8F09FCBF1000093
:10595000DFE704460021404A491842EB0450CDE9F4
:10596000001012E0E00707D032463B464046494669
:10597000FAF70FFE8046894632463B4610461946E6
:10598000FAF707FE06460F466410002CEAD1DDE95F
:105990000401DDE90023BAF1000F06DAFAF7F9FD98
:1059A00042464B46FAF7F5FD05E0FAF764FE42463B
:1059B0004B46FAF760FE04460E460022284BFAF7E3
:1059C00067FF03D84FF0FF30014607E00022254B68
:1059D00020463146FAF736FDFBF780F9102409E03E
:1059E000002C0ADB0A220023FAF7B0FF039B3032B7
:1059F0001A55641E50EA0102F2D1641C039AC4F1E4
:105A000011031444119A012A03D0012208430DD135
:105A10000AE0084304D000204FF0110B119072E708
:105A2000A3EB0B056D1E0DE05B4504DD4FF000029E
:105A300005F1010504E003DA4FF00002A5F10105CC
:105A4000002AECD002981199C0E90231C0E9004562
:105A500079E70000000014400000F03F3000000033
:105A60000000F0430000E03F30380A2801D2012056
:105A700070470020704700002DE9FF4F95B09B460E
:105A80008946064600250FE2252877D100242746BF
:105A9000F84A0121059400E0044316F8013F203B39
:105AA00001FA03F01042F7D130782A2811D06FF0B4
:105AB0002F033078A0F13002092A16D8059A44F055
:105AC000020402EB820203EB42021044761C0590B2
:105AD000EFE759F8042B0592002A03DA504244F408
