:020000040800F2
:10000000B0120020010100084923000875200008F3
:10001000F52100080B100008053A00080000000058
:10002000000000000000000000000000F52D0008A6
:10003000B51A000800000000892A0008D130000825
:100040001B0100081B0100081B0100081B01000820
:100050001B0100081B0100081B0100081B01000810
:100060001B0100081B0100081B0100081B01000800
:100070001B0100081B0100081B0100081B010008F0
:100080001B0100081B0100081B0100081B010008E0
:100090001B0100081B0100081B0100081B010008D0
:1000A0001B0100081B0100081B0100081B010008C0
:1000B0001B0100081B0100081B0100081B010008B0
:1000C0001B0100081B0100081B0100081B010008A0
:1000D0001B01000859360008F93600081B0100080A
:1000E0001B0100081B0100081B010008DFF80CD0F1
:1000F00000F006FD00480047AD440008B0120020A3
:100100000648804706480047FEE7FEE7FEE7FEE7B1
:10011000FEE7FEE7FEE7FEE7FEE7FEE7D930000870
:10012000ED00000838B5D0E90221491E01EB41017C
:1001300002EBC1014268C1EB011102EB81010268CF
:10014000C1EB011102EB8102D0E9043101EB410165
:1001500003EB81013023A1F5527191FBF3F4174DAC
:100160006C4302EBC41291FBF3F403FB14110092F5
:100170001A2902DB124B1A4400920C2291FBF2F373
:10018000104C6343009C04EBC313009391FBF2F308
:1001900002FB13110C4A08E0491E40F2A324535CF1
:1001A0006343009C04EBC31300930029F4DC014675
:1001B000684600F02DFB009838BD00003F0C0F0092
:1001C0008051010067C203007259000840EA010330
:1001D0009B0703D009E008C9121F08C0042AFAD2FD
:1001E00003E011F8013B00F8013B521EF9D27047C1
:1001F000D2B201E000F8012B491EFBD27047002269
:10020000F6E710B513460A4604461946FFF7F0FF15
:10021000204610BD30B505462A460B4612F8010BA4
:1002200013F8014B08B1A042F8D01CB1002802D04D
:100230006D1CF1E7284630BD10B5044604E00B788C
:1002400000F8013B03B1491C521EF8D2204610BDF4
:10025000421C10F8011B0029FBD1801A704710B511
:10026000002200E0521C835C8C5CA34201D1002B75
:10027000F8D1D8B2E1B2401A10BD034611F8012BF3
:1002800000F8012B002AF9D11846704710B508E094
:100290000A4602E0A34208D0521C1378002BF9D181
:1002A000401C0478002CF3D1002010BD70B5064628
:1002B00003F04AFC046805460A220021304600F09B
:1002C0003BFB2C6070BD30B480EA010202F00045B7
:1002D00030F0004221F0004013D090B1C30DD40D96
:1002E000C2F31601C0F31600E41A41F4000140F411
:1002F00000027D34914201D3641C00E04900002CCF
:1003000002DA30BC002070474FF400000023914215
:1003100001D3891A034340084FEA4101F7D151B193
:10032000914202D14FF0004105E002D24FF00101AD
:1003300001E06FF0010103EBC450284430BC00F031
:1003400033BB2DE9FE4F804681EA0300C00F0C4607
:10035000009021F0004123F00045B8EB0200A941D4
:1003600005D24046214690461C460B46024623F0E5
:100370000040104347D0270DC7F30A00C3F30A51CA
:100380000290401A019040286BDAC3F3130040F446
:10039000801B0098924620B10023D2EB030A63EB46
:1003A0000B0B01985946C0F14002504600F0F9F994
:1003B00006460D4650465946019A00F011FA10EBD8
:1003C00008006141002487EA115284EAE7731A4366
:1003D00040D0009A62B3019A012A4FEA075215DC15
:1003E000001B61EB02014FF0004202EA0752CDE927
:1003F0000042001C41F5801132462B4600F01AFBEA
:1004000003B0BDE8F08F40462146F9E7001B61EBE1
:100410000201001C41F5801300185B412018A2F571
:10042000001747EB030140EAD570B6196D4111E0A2
:100430006D084FEA360645EAC0754FEA0752001BC1
:1004400061EB0201001C41F5801149084FEA3000C0
:100450000019514132462B4603B0BDE8F04F00F081
:10046000DABA0098012240000023D0EB020263EBCD
:10047000E073009821464FEAE074B8EB000061EBAE
:100480000401E9E783F000435BE781F0004158E7AE
:100490002DE9FE4F81EA030404F0004421F00041FD
:1004A00000944FF0000B23F0004350EA01045ED0AB
:1004B00052EA03045BD0C3F30A54C1F30A552C4437
:1004C000A4F2F3340194A0FB0254C1F3130141F4EC
:1004D0008011C3F3130343F4801301FB024400FBB8
:1004E000034E840A970A44EA815447EA8357A4FBDF
:1004F000076802958D0A05FB07854FEA932C04FBDC
:100500000C542705029D4FEA065847EA1637B5EB0B
:1005100008056EEB070C870E920E47EA811742EA38
:100520008312A7FB0201B6EB0B0164EB00042B0D59
:1005300043EA0C335E1844EB1C50DA465146E7FBA5
:100540000201C5F313044FEA0B3343EA14534FEA95
:100550000432019C43EA0603A4F10C040294009CBB
:10056000CDE900B400F066FA03B0BDE8F08F0020DA
:100570000146F9E72DE9F04D81EA030404F0004B50
:1005800021F0004514464FF0000A23F0004150EAE4
:10059000050220D054EA01021DD0C5F30A570246D5
:1005A000C5F31303C1F31300C1F30A5640F48015D9
:1005B00043F48013A7EB0608101BD64608F2FD385B
:1005C00073EB050002D308F1010801E092185B41CA
:1005D000B8F1000F03DA00200146BDE8F08D0020DD
:1005E0004FF48011064684460EE0171B73EB050797
:1005F00005D3121B63EB050306434CEA010C4908C3
:100600004FEA300092185B4150EA0107EDD152EAFF
:10061000030012D082EA040083EA0501084305D0F2
:10062000101BAB4106D20122002306E000224FF04E
:10063000004302E06FF0010253101AEB06004CEB8E
:10064000085110EB0A0041EB0B01BDE8F04D00F042
:10065000E2B996230022114600F0AFB920F0004025
:10066000C10DC0F3160040F400007F2901DA00201C
:100670007047962903DCC1F19601C840704796394E
:100680008840704700F0004230F000400AD0C10DB1
:1006900001F56071C0F3160042EA0151C20840073B
:1006A00011437047002001467047000030B5041E1A
:1006B00071F1000404DB4FF00044404264EB01019F
:1006C000141E73F1000405DB1C464FF00043524238
:1006D00063EB0403994208BF904230BD01F0004330
:1006E00030B421F0004150EA010206D00A0DA2F513
:1006F0006072C1F31301002A02DC30BC0020704795
:10070000440F44EAC104C100E01830BC00EBC25001
:1007100000F04AB930B50B460146002020220124E2
:1007200009E021FA02F59D4205D303FA02F5491BBF
:1007300004FA02F52844151EA2F10102F1DC30BDD5
:100740002DE9F05F0546002092469B468846064606
:10075000814640241BE0284641464746224600F099
:100760002FF853465A46C01A914110D311461846E5
:10077000224600F016F82D1A67EB01084F46224674
:100780000120002100F00DF817EB00094E41201E5A
:10079000A4F10104DFDC484631462A464346BDE861
:1007A000F09F202A04DB203A00FA02F10020704773
:1007B0009140C2F1200320FA03F31943904070479F
:1007C000202A04DB203A21FA02F00021704721FAA6
:1007D00002F3D040C2F1200291400843194670470D
:1007E000202A06DBCB17203A41FA02F043EAE073F5
:1007F00006E041FA02F3D040C2F1200291400843E2
:1008000019467047014900F003B80000840E00202B
:1008100010B500683C22B0FBF2F302FB1303B0FBFF
:10082000F2F00B60B0FBF2F302FB1303B0FBF2F04B
:1008300018224B60B0FBF2F302FB1303B0FBF2F0A3
:10084000021D8B600723B2FBF3F403FB142280002C
:1008500040F2B55300F66C308A61B0FBF3F2B0FBA6
:10086000F3F403FB1400443280084A61C8613B285A
:1008700002D3920700D0401C0022074C13460A61A5
:10088000E25C824203D8801A5B1C0B61F8E7401CD3
:10089000C860084610BD00007E5900080FB4002350
:1008A00000B589B00CA900910B996FF00042CB60A4
:1008B0001E4B06931E4B07930423CDE901321D4ABC
:1008C000089202466B46002000F0CEF909B05DF8B0
:1008D00014FB70B586B006464FF0FF300091CDE9AD
:1008E0000101002015460C4604903246694604A8D2
:1008F000FFF7D4FF02460498211825B108B1084635
:1009000000E020462860049800280DD0002A02DD6F
:100910000098884208D0081B0094CDE901043246B3
:10092000694604A8FFF7BAFF06B070BDA10E000823
:10093000BF0E00082D0B00082DE9F04791460F4629
:1009400080460446002614F8015B2DB100F0EAF859
:100950000068405DC007F6D12B2D02D02D2D18D098
:10096000641E4A463946204600F0BAFA27B1396873
:10097000A14201D1C7F8008071054FF002040BD5E8
:100980004042002803DD03F0DFF80460A007BDE863
:10099000F08746F48066E4E70028F8DA03F0D4F83C
:1009A00004606FF00040F2E70029A8BF7047401CC8
:1009B000490008BF20F00100704710B4B0FA80FC75
:1009C00000FA0CF050EA010404BF10BC704749B1B2
:1009D000CCF1200421FA04F411FA0CF118BF012122
:1009E00021430843A3EB0C01CB1D4FEA00614FEA02
:1009F000102042BF002010BC704700EBC3501044D1
:100A00000029A4BF10BC7047401C490008BF20F05B
:100A1000010010BC704710B5141E73F1000408DA11
:100A2000401C41F1000192185B411A4301D120F0B2
:100A3000010010BD2DE9F04D92469B4611B1B1FA6F
:100A400081F202E0B0FA80F220329046FFF7A9FE70
:100A500004460F4640EA0A0041EA0B0153465A4653
:100A6000084313D0114653EA010019D0C8F14002DF
:100A70005046FFF7A5FE05460E46504659464246EB
:100A8000FFF78FFE084305D0012004E020463946D9
:100A9000BDE8F08D0020054346EAE0762C4337435D
:100AA0000A986305E40AA0EB08000022FD0A44EA64
:100AB00047540A3002D500200146E9E70105101924
:100AC0006941DDE9084500196941BDE8F04DA2E73B
:100AD000C1F30A52C1F3130140F2FF3341F4801114
:100AE0009A4202DA00200146704740F233439A42AC
:100AF000A2F2334202DC5242FFF762BEFFF751BE60
:100B0000064C074D06E0E06840F0010394E807005A
:100B100098471034AC42F6D3FFF7ECFAD45A0008E9
:100B2000F45A0008004870470C5A000810B50446F3
:100B3000FFF7F8FF0068005D00F0010010BD000045
:100B40002DE9FF4F087883B09946FF2805D0491C4E
:100B50002D2804D00024002008E000200BE0012410
:100B6000F9E700EB800003EB4000491C0B78FF2BFA
:100B7000F7D104B1404200230293147819461D4670
:100B80002D2C01D02B2C04D1521C2D2C13D0002441
:100B90000294AA461478FF2C0FD00A25A3FB0578EF
:100BA00001FB05814FF0000C03FB0C11521CE319F3
:100BB0004AEB0101EEE70124EAE7814453EA010030
:100BC00002D019F5C87F06DA03980021C0E90011A8
:100BD00007B0BDE8F08F0025AE4E2F46DFF8B88293
:100BE000184600F0DAF9CDE90001B9F1000002DAA7
:100BF000C9F1000400E004460023A74A1AEB030BE6
:100C000042EB045A12E0E00707D02A463346384642
:100C10004146FFF73DFC074688462A4633461046C4
:100C20001946FFF735FC05460E466410002CEAD144
:100C3000DDE90001B9F1000F5A46534606DAFFF725
:100C400099FC3A464346FFF795FC05E0FFF720FC88
:100C50003A464346FFF71CFC029A0AB181F0004174
:100C6000039AC2E90001B3E72DE9FF4F1F468DB09B
:100C7000D7E901464FF0FF382E2045464FF00009D6
:100C80000B90B9696D1C0E988847396A824688476F
:100C90000028F6D1BAF1FF3F0AD024F4D064002E28
:100CA00011DDBAF12B0F08D0BAF12D0F0BD102E0F4
:100CB000404611B08DE744F48064B9696D1C0E980C
:100CC00088478246761E6946600501D52D2000E0E2
:100CD0002B208DF8000001F1010B0DF1200809E037
:100CE000B9696D1C0E98884782460F9844F40074C9
:100CF000761E0560002E02DDBAF1300FF0D00B99A0
:100D00008A453ED144F0800406E00F99681CA9F1A1
:100D1000010944F400740860B9696D1C761E0E98D0
:100D2000884782463028F0D02BE00B998A4505D1C0
:100D3000200603D444F08004761E18E0504602F0EA
:100D4000E5FF08B30DF11301761E44F400748B45E2
:100D500008D2AAF130000BF8010B200607D5A9F143
:100D6000010003E0200602D409F101008146A0053C
:100D700002D50F99681C0860B9696D1C0E988847E8
:100D80008246002ED1DC53E0002E51DDBAF1650F12
:100D900002D0BAF1450F4BD1A00549D5B9696D1CF8
:100DA00024F44074761E0E9888478246002E0CDD8F
:100DB0002B2804D0BAF12D0F07D144F48074B969FF
:100DC0006D1C0E9888478246761EE00501D52D21C0
:100DD00000E02B2108F8011BCDF82C8021E00DF15B
:100DE0002901761E44F4007488450CD2AAF1300023
:100DF00010F0FF0088F8000002D10B99884509D94E
:100E000008F1010806E0E00501D5244801E042F2BE
:100E10000F708146B9696D1C0E98884782460F98FD
:100E20000560002E04DD504602F070FF0028D6D188
:100E3000F9690E988847FF208BF8000088F80000B9
:100E40000020069007904B466A4608A906A8FFF7BF
:100E500077FEA00502D46FF001002AE714F0240FFA
:100E60000AD0E00714D1DDE906123868031D3B60A3
:100E70000068C0E900120BE0DDE90601FFF72EFC77
:100E80000146E00704D13868021D3A60006801603D
:100E900028460EE7000014400000F03FF1D8FFFFA5
:100EA000426842B1016811F8013B23B1521EC0E90A
:100EB0000012184670470121C160881E70474268C1
:100EC0005AB1C368016843B983688B4205D0491E93
:100ED000521CC0E90012002070474FF0FF307047ED
:100EE0002DE9F05F82460078002715468B460AF10F
:100EF0000104B946302801D09DB113E014F8010B6C
:100F00000127782803D0582801D045B10AE00DB157
:100F1000102D07D10027102514F8010B02E0082539
:100F200000E00A250026B0460EE005FB080005FBA0
:100F300006F1012701EB10461FFA80F8B6F5803F55
:100F400000D3B94614F8010B294600F018F8002820
:100F5000EBDABBF1000F05D00FB1641E00E0544680
:100F6000CBF80040B9F1000F06D002F0EDFD0221F0
:100F70000160C81EBDE8F09F48EA0640FAE73A283B
:100F800000D2303820F02002412A01D3A2F13700EC
:100F9000884201D34FF0FF3070470EB540F2334224
:100FA00002920022CDE900221346FFF743FD03B071
:100FB00000BD70B58C1810F8015B15F0070301D166
:100FC00010F8013B2A1106D110F8012B03E010F8AC
:100FD000016B01F8016B5B1EF9D12B0705D40023CF
:100FE000521E0DD401F8013BFAE710F8013BCB1A71
:100FF000921C03E013F8015B01F8015B521EF9D566
:10100000A142D8D3002070BD704700BFFEE70000AA
:1010100008B50121042001F0E9FD10208DF803003E
:101020000120ADF8000003208DF802006946044855
:1010300000F0C6FE0121024800F0A1FF08BD00003B
:101040000008014000B5ADF5017D4FF4007101A825
:10105000FFF7D5F84FF4007101A8FFF7D0F805A20B
:1010600009A101A802F05CFD01A802F035FD0DF513
:10107000017D00BD434D443A434F4E4E45435445D8
:10108000445F574946497D002573000010B54FF471
:1010900000710548FFF7B3F800200349A1F80002EA
:1010A00081F8020210BD00002C01002010B500BF25
:1010B00026480068044626480068201A41F2883114
:1010C000884203D223A001F02AFF10BD2B480078EC
:1010D000022803D12AA001F022FFF6E72748007872
:1010E00001280ADA31A13448FFF794F828B933A16E
:1010F0003448FFF78FF800281AD033A001F00FFF13
:1011000039A001F00CFF43A001F009FF47A001F056
:1011100006FF4CA001F003FF50A000F0F3F80C48CC
:10112000046053A001F0FBFE5EA001F0F8FE0BE0AE
:1011300062A001F0F4FE6DA001F0F1FE1E4801F086
:10114000EEFE33A001F0EBFE00BFBEE7D8000020AA
:1011500018000020E8AFB7E7AD89E5BE8535E7A701
:1011600092E5908EE5868DE5B09DE8AF95E8BF9E4F
:10117000E68EA52E2E2E0D0A00000000E1000020B4
:10118000E5B7B4E6B395E4BA91E5B7B2E8BF9EE639
:101190008EA5EFBC8CE697A0E99C80E9878DE5A43D
:1011A0008DE8BF9EE68EA50D0A000000E5B7B2E807
:1011B000BF9EE68EA5000000000100203137322ED0
:1011C00031363800720000203D3D3D20E5BC80E511
:1011D000A78BE8BF9EE68EA5E5B7B4E6B395E4BA63
:1011E00091203D3D3D0D0A00E5AF86E992A53A20EC
:1011F0003531643738626561393233393437656285
:101200006265616365303037356439366363323126
:101210000D0A0000E4B88AE4BCA0E4B8BBE9A298D7
:101220003A2074616E67310D0A000000E68EA7E572
:1012300088B6E4B8BBE9A2983A2074616E67320DB3
:101240000A000000E58F91E98081E8BF9EE68EA547
:10125000E68C87E4BBA42E2E2E0D0A00434D443AA3
:10126000434F4E4E45435445445F544350000000A5
:10127000E5B7B4E6B395E4BA91E8BF9EE68EA5E67D
:101280008C87E4BBA4E5B7B2E58F91E98081EFBC20
:101290008CE7AD89E5BE85E5938DE5BA942E2E2EBB
:1012A0000D0A00003D3D3D3D3D3D3D3D3D3D3D3D4B
:1012B0003D3D3D3D3D3D3D0D0A000000E99499E86E
:1012C000AFAF3A2057694669E69CAAE8BF9EE68E12
:1012D000A5EFBC8CE697A0E6B395E8BF9EE68EA589
:1012E000E5B7B4E6B395E4BA910D0A00E5BD93E520
:1012F000898DE8BF9EE68EA5E78AB6E680813A2012
:101300000000000010B5ADF5047D044601202E4913
:101310000870410204A8FEF772FF4FF4007104A8A0
:10132000FEF76DFF29A12046FEF799FF002816D190
:1013300001202B490870410204A8FEF760FF29A094
:101340002AA12CA22DA3CDE9002102901FA234A135
:1013500004A802F0E5FB04A802F0BEFB31E034A1D2
:101360002046FEF77CFF002816D102201C49087099
:10137000010204A8FEF743FF32A035A13DA23FA31E
:10138000CDE9002102902AA225A104A802F0C8FB01
:1013900004A802F0A1FB14E03BA12046FEF75FFF8A
:1013A00078B903200E4908704FF4007104A8FEF7C5
:1013B00026FF35A21DA104A802F0B2FB04A802F08A
:1013C0008BFB0DF5047D10BDE1000020434D443A38
:1013D000434F4E4E45435445445F54435000000034
:1013E00038000020383334340000000074616E6728
:1013F0003200000074616E673100000035316437DF
:1014000038626561393233393437656262656163E8
:10141000653030373564393663633231000000009F
:1014200025732C25732C25732C25732C25737D0097
:10143000434D443A434F4E4E45435445445F4D510E
:1014400054540000636E2D7368616E6768616900B3
:101450006366303065626139316339343337643201
:10146000663465383534316539623739376561340A
:101470000000000066697265000000006B31723682
:10148000636C664C36553300434D443A434F4E4EE1
:1014900045435445445F48545450000010B500245F
:1014A000002000F04BF805E0601CC4B201200021D0
:1014B00000F044FB4FF480510F4800F055FD08B197
:1014C000642CF1DB642C01DB012010BD002405E05D
:1014D000601CC4B20120002100F030FB4FF48051A9
:1014E000054800F041FD08B9642CF1DB642C01DBF8
:1014F0000120EAE70020E8E7000C014008B50121DF
:10150000082001F073FB4FF48050ADF8000010206C
:101510008DF8030003208DF802006946064800F0AC
:101520004FFC4FF48051044800F029FD00F090F882
:10153000FFF7B4FF08BD0000000C014038B50446B9
:1015400054B14FF48050ADF8000003208DF8020034
:1015500010208DF8030006E04FF48050ADF8000035
:1015600004208DF803006946014800F029FC38BDCD
:10157000000C014010B5002405E0601CC4B201203D
:10158000002100F0DBFA4FF48051124800F0ECFC2F
:1015900008B1642CF1DB002405E0601CC4B201201A
:1015A000002100F0CBFA4FF480510A4800F0DCFC37
:1015B00008B9642CF1DB2820002100F0BFFA4FF4B9
:1015C0008051044800F0D0FC08B1012010BD00207B
:1015D000FCE70000000C014070B50024002506E087
:1015E0006006040EFFF7C6FF0443681CC5B2082D51
:1015F000F6DB204670BD7CB505460E4600F028F8A7
:10160000FFF74CFFF8B9002405E0FFF7E5FF0DF800
:101610000400601CC4B2052CF7DB9DF800009DF8A7
:10162000011008449DF8021008449DF80310084476
:101630009DF80410884208D19DF8000030709DF894
:101640000200287001E001207CBD0020FCE70000C2
:1016500010B50120FFF772FF4FF48051084800F0E9
:101660008CFC1420002100F057FA4FF480510448FC
:1016700000F085FC0D20002100F060FA10BD000094
:10168000000C01402DE9F04792B0D84890F80202D2
:10169000012871D10020D54981F802020026D4A189
:1016A000D248FEF7B7FD00B1D7E0D5480078012851
:1016B00012D1D4A1CD48FEF7ADFD04462CB1D3A183
:1016C000CA48FEF7A7FD00B1264626B9CFA1C748F4
:1016D000FEF7A0FD064612E0C9480078022805D1B1
:1016E000CCA1C248FEF796FD064608E0C448007843
:1016F000032804D1C9A1BD48FEF78CFD0646002E83
:1017000076D04FF00009BFA1B848FEF783FD50B175
:10171000BCA1B648FEF77EFD0446C2A1201DFEF71F
:1017200079FD814600BFB9F1000F04D1BDA130465B
:10173000FEF770FD8146B9F1000F02D112B0BDE88D
:10174000F087002484E004EB4400B74951F82030CE
:10175000B6A220210AA802F0CBF90AA94846FEF752
:1017600059FD8246BAF1000F00D170E00AA8FEF7D9
:101770006FFD00EB0A0501E035E16D1C287820289B
:10178000FBD028782228F8D0AAA12846FEF77EFDB3
:101790008046B8F1000F00D159E0A8EB0507002FF3
:1017A00001DD202F00DB52E03A46294602A8FEF771
:1017B00043FD002002A9C85504EB44009A4901EBFF
:1017C00080000079052840D2DFE800F003131E29CD
:1017D000340002A802F049FECDE90001FEF77EFFC9
:1017E00004EB4401904A02EB8101896808602CE017
:1017F00032E002A8FEF75AFD04EB44018A4A02EBEC
:1018000081018968086020E002A8FEF74FFD04EB23
:101810004401854A02EB81018968087015E002A83D
:10182000FEF744FD04EB44017F4A02EB8101896825
:1018300008800AE002A8FEF739FD04EB44017A4A69
:1018400002EB81018968086000BF00BF00BF641C13
:10185000052CFFF478AF00BF00BF77A16348FEF707
:10186000D9FC061E3CD077A13046FEF7D3FC0546D6
:1018700015B9FFF70BFC61E7AD1C5C48281A84B270
:101880005A49081902F0D3FF6F490880574A611D71
:10189000501802F0BDFF6C494880544A04F1080119
:1018A000501802F0B5FF68498880504A04F10B01D6
:1018B000501802F0ADFF6449C8804C4A04F10E0193
:1018C000501802F0A5FF60490881484A04F111014F
:1018D000501802F09DFF5C49488100F00FFD00BFE9
:1018E0005AA14248FEF796FC061E07D006F10F04E7
:1018F0002046FEF7DBFC5949087000BF58A13B4861
:10190000FEF788FC061E1AD006F10F0558A12846DE
:10191000FEF7BCFC074627B93448FEF799FC33496B
:1019200047187C1B002C09DD0E2C07DA22462946BD
:101930005148FEF781FC00204F49085500BF4FA1D8
:101940002A48FEF767FC061E4AD036A13046FEF74D
:1019500061FC8046B8F1000F41D04BA14046FEF734
:1019600059FC8146B9F1000F19D009F1080749A1C6
:101970003846FEF74FFC8246BAF1000F0ED0AAEBB4
:101980000705002D09DD322D07DA2A46394642487F
:10199000FEF752FC00204049485500BF00BF3FA160
:1019A0004046FEF737FC0446C4B1A71D39A13846AE
:1019B000FEF730FC8246BAF1000F0ED0AAEB070505
:1019C000002D09DD142D07DA2A4639463548FEF781
:1019D00033FC00203349485500BF00BF00BF00BFA3
:1019E000FFF754FB00BF00BFA8E600002C01002059
:1019F000434D443A434F4E4E454354454400000046
:101A0000380000206D73673D0000000074616E6750
:101A1000320000004D65737361676500687474700F
:101A2000000000007B0000008800002022257322B7
:101A30003A0000002C7D22004765745F54696D6593
:101A4000000000003A220000C80000205749464923
:101A50005F434F4E4E45435445443A00E100002059
:101A6000616464726573733A687474703A2F2F00FE
:101A70003A2F20090A0D0000CE050020574946499B
:101A80005F494E464F3A00002253534944223A22BE
:101A900000000000220000004000002022495022E7
:101AA0003A22000072000020012101484175704770
:101AB000580B00207047000030B51449B1F1807F09
:101AC00001D301201DE021F07F40401E4FF0E022B5
:101AD000506150170F22002807DA13071D0E0C4B18
:101AE00000F00F04241F1D5503E013071C0E094BC3
:101AF0001C5400BF00204FF0E022906107201061CD
:101B00000020012801D100BFFEE730BD40190100CF
:101B100018ED00E000E400E010B500BF064B1B68C4
:101B20001A4600BF00BF044B1B689B1A00241B1AF7
:101B30008C41F7D310BD0000D800002030B547E03D
:101B400000BF00BF00BF00BF00BF00BF00BF00BF9D
:101B500000BF00BF00BF00BF00BF00BF00BF00BF8D
:101B600000BF00BF00BF00BF00BF00BF00BF00BF7D
:101B700000BF00BF00BF00BF00BF00BF00BF00BF6D
:101B800000BF00BF00BF00BF00BF00BF00BF00BF5D
:101B900000BF00BF00BF00BF00BF00BF00BF00BF4D
:101BA00000BF00BF00BF00BF00BF00BF00BF00BF3D
:101BB00000BF00BF00BF00BF00BF00BF00BF00BF2D
:101BC00000BF00BF00BF00BF00BF00BF00BF00BF1D
:101BD0000A460346401E61F1000100256B406A4041
:101BE0001343ADD130BD000000B587B00020069092
:101BF000029003900490059001900121042000F0D0
:101C0000F5FF0121480400F0E1FF0420ADF81800C1
:101C100018208DF81B0003208DF81A0006A92D4806
:101C200000F0CEF80820ADF8180004208DF81B0055
:101C300006A9284800F0C4F84FF4E13002900020D3
:101C4000ADF80C00ADF81000ADF80E000C20ADF8AA
:101C500012000020ADF8140002A91F4801F014FE84
:101C6000012240F225511C4801F0E8FD012240F21A
:101C70002441194801F0E2FD26208DF804000120DE
:101C80008DF8070000208DF8050001208DF8060072
:101C900001A800F05BFB01210F4801F08CFD40F230
:101CA00004410E48FEF7ABFA00200C4981F802020D
:101CB000A1F800024FF4FA600021FFF72DFF08A001
:101CC00001F00AFF4FF47A700021FFF725FF07B0FB
:101CD00000BD000000080140004400402C0100202D
:101CE00041540D0A000000002DE9F04124A12B48C9
:101CF000FEF790FA0746EFB107F1180628A1304623
:101D0000FEF7C4FA8046B8F1000F04D13046FEF762
:101D10009FFA00EB0608A8EB0604002C09DD312C25
:101D200007DA224631461F48FEF786FA00201D4991
:101D3000085500BF1CA11948FEF76CFA0546EDB125
:101D400005F1100616A13046FEF7A0FA8046B8F15C
:101D5000000F04D13046FEF77BFA00EB0608A8EB33
:101D60000604002C09DD132C07DA224631461348FD
:101D7000FEF762FA00201149085500BFBDE8F08166
:101D8000436F6E6E656374696E6720746F20534194
:101D90005645442041503A20000000002C0100200C
:101DA000200D0A004000002053544120495020419A
:101DB0006464726573733A200000000072000020B2
:101DC0002DE9F041024600250026002000230024D2
:101DD000002791F803C00CF00F0591F803C00CF038
:101DE000100CBCF1000F03D091F802C04CEA0505BD
:101DF00091F800C0BCF1000F31D0146800202BE036
:101E00004FF0010C0CFA00F3B1F800C00CEA030625
:101E10009E4220D183004FF00F0C0CFA03F7BC4315
:101E200005FA03FC4CEA040491F803C0BCF1280F46
:101E300006D14FF0010C0CFA00FCC2F814C00AE005
:101E400091F803C0BCF1480F05D14FF0010C0CFA1A
:101E500000FCC2F810C0401C0828D1D31460B1F8AF
:101E600000C0BCF1FF0F34DD546800202EE000F10B
:101E7000080C4FF0010808FA0CF3B1F800C00CEAA6
:101E800003069E4221D183004FF00F0C0CFA03F79A
:101E9000BC4305FA03FC4CEA040491F803C0BCF10E
:101EA000280F05D100F1080C08FA0CF8C2F81480CC
:101EB00091F803C0BCF1480F07D100F1080C4FF0B6
:101EC000010808FA0CF8C2F81080401C0828CED38C
:101ED0005460BDE8F0810000F0B50A4600230024FC
:101EE0000021002500F00046B6F1004F02D11D4E42
:101EF000F16901E01B4E7168C0F3034583B200F441
:101F00004016B6F5401F08D121F07061154E766875
:101F100026F07066134F7E6012E000F48016B6F56E
:101F2000801F06D1032606FA05F4A14341F0706133
:101F300006E0460D360103FA06F6B14341F0706142
:101F400022B1460D360103FA06F6314300F0004691
:101F5000B6F1004F02D1034EF16101E0014E716014
:101F6000F0BD0000000001400246002093680B40D5
:101F70000BB1012000E00020704741617047016112
:101F800070470AB1016100E041617047704700008D
:101F900010B500244FF400410B48FFF7E5FF80B96E
:101FA00014200021FFF7B8FD00BF4FF400410648A0
:101FB000FFF7DAFF0028F8D014200021FFF7ACFD6E
:101FC0000124204610BD00000008014010B5002487
:101FD00008210B48FFF7C8FF78B914200021FFF74C
:101FE0009BFD00BF08210648FFF7BEFF0028F9D07F
:101FF00014200021FFF790FD0224204610BD0000B0
:10200000000C014010B5002410210B48FFF7ACFF75
:1020100078B914200021FFF77FFD00BF102106488A
:10202000FFF7A2FF0028F9D014200021FFF774FD6C
:102030000324204610BD0000000C014010B5002410
:1020400020210B48FFF790FF78B914200021FFF7FB
:1020500063FD00BF20210648FFF786FF0028F9D066
:1020600014200021FFF758FD0424204610BD000075
:10207000000C014000BFFEE710B500F01BF904485A
:10208000C16901620021C16100F004F810BD0000C7
:10209000580B00204AF6AA2001490860704700004A
:1020A0000030004010B501F017F8FFF705FD00F013
:1020B0002FFB00F05FF800F025F800F0D3F8FFF7F1
:1020C00093FD0AE008230DA20021084600F06AFCF7
:1020D0004FF47A700021FFF71FFDFFF70FFA002879
:1020E000F0D1FEF795FF02F0C1FB00F085FEFFF78F
:1020F000DBFC01F05DF801F071F810BD6572726FE4
:102100007200000008B501210C2000F06FFD0121D4
:10211000084600F06BFD01211348FFF7DDFE482063
:102120008DF8030003208DF802004FF40040ADF855
:10213000000069460D48FFF743FE0820ADF8000097
:1021400069460B48FFF73CFE1020ADF800006946D9
:102150000748FFF735FE2020ADF800006946044827
:10216000FFF72EFE08BD000000023000000801400D
:10217000000C014008B50121042000F037FD1020BB
:102180008DF803000120ADF8000003208DF8020057
:1021900069460348FFF714FE00F004F808BD00008C
:1021A0000008014010B501210148FFF7E8FE10BD0D
:1021B0000008014010B50D480078012815D1FFF73F
:1021C00021FF032811D10A480078401C08490870F3
:1021D000087800EBD0714910A0EB4101012902D130
:1021E00002F066FB01E002F05BFB10BD2000002066
:1021F0002100002000BFFEE710B5184890F8020249
:10220000012803D1FFF770FDFFF73CFAFFF7C0FE8E
:1022100013498875FFF7DAFE1149C875FFF7F2FE1A
:102220000F490876FFF70AFF0D4948760846807D7A
:1022300008B101F0E9FB0A48C07D10B1022108484D
:1022400041620748007E10B10321054841620448FD
:10225000407E10B104210248416210BD2C010020D3
:10226000580B002010B50121C80600F0AFFC012179
:10227000080700F0ABFC012000F000FC012000F09A
:102280004DFD00BF612000F02BFD0128FAD1400276
:1022900000F050FD012000F047FD00F099FD00F036
:1022A0008DFD49F63F4000F079FD00F087FD00F01C
:1022B00025F810BD10B58CB000F058FD00F5E140D8
:1022C0000B900BA8FEF79EFA04462C222146684686
:1022D000FDF77CFF059800F26C70074908800498B0
:1022E000401C4880039888800298C8800198088123
:1022F000009848810CB010BDC800002010B58CB00B
:1023000010480088A0F26C7006900E484088401E6D
:1023100005900C48808804900A48C08803900948BA
:102320000089029007484089019001A8FDF7FAFE54
:10233000A0F5E144204600F023FD00F03FFD0CB085
:1023400010BD0000C80000207047000070B50021DB
:1023500000230F22C47804B3154C246804F4E0640D
:10236000C4F5E064210AC1F10403CA40447804FAC8
:1023700003F184781440214309010E4C0678A155DD
:10238000047804F01F050124AC4005786D11AD0000
:1023900005F1E025C5F8004109E0047804F01F05C7
:1023A0000124AC40044D0678761145F8264070BDF6
:1023B0000CED00E000E400E080E100E002490143B0
:1023C000024A1160704700000000FA050CED00E0C1
:1023D0002DE9F04304460D4616461F467F2C01DDCD
:1023E000BDE8F0833F2D00DDFAE7A119802902DD69
:1023F000C4F18001CEB2E919402902DDC5F14001E6
:10240000CFB2284630E0234629E04FEAE07C00EBDB
:102410005C7C4FEAEC0CDFF85C8008EBCC1C1CF811
:1024200003C002464FEAE07800EB58784FEAE8082C
:10243000A0EBC8094FF0010808FA09F82CEA080CCB
:1024400001464FEAE07800EB58784FEAE808DFF8F9
:10245000249009EBC81808F803C0591CCBB2A11985
:102460009942D2DC411CC8B2E9198142CBDC00BFE1
:10247000B6E70000DC0500202DE9FF4F86B0069F7F
:10248000079EDDF82080DDF8249000200190009068
:102490004E450FD1474502DDBA464746D0463C4639
:1024A00005E0F1B2E0B200F0A3F8601C04B24445CC
:1024B000F7DD99E047450FD14E4502DDB2464E4665
:1024C000D146354605E0E9B2F8B200F091F8681C53
:1024D00005B24D45F7DD87E0474505DDBA4647467D
:1024E000D046B2464E46D1464E4507DD704206B252
:1024F000C9F100000FFA80F901200190A9EB060054
:10250000A8EB0701884207DDBA4637465646C24661
:10251000C846D14601200090A8EB070000B2059004
:10252000A9EB06000FFA80FB4FEA4B0000B20390C4
:102530000598ABEB0000400000B202900598C0EB9C
:102540004B0000B204903C463546019838B10098E3
:1025500028B16242D1B2E8B200F04AF812E0019824
:1025600028B16A42D1B2E0B200F042F80AE0009825
:1025700020B1E1B2E8B200F03BF803E0E9B2E0B22A
:1025800000F036F82EE0601C04B20498002805DA4A
:10259000DDE90310084400B2049006E0681C05B2AF
:1025A00002990498084400B20490019838B1009848
:1025B00028B16242D1B2E8B200F01AF812E00198F4
:1025C00028B16A42D1B2E0B200F012F80AE00098F5
:1025D00020B1E1B2E8B200F00BF803E0E9B2E0B2FA
:1025E00000F006F84445CEDB0AB0BDE8F08F0000ED
:1025F00070B503467F2B00DD70BD3F2900DDFBE792
:10260000CC1701EB5474E4100C4D05EBC414E45CDE
:102610000A46CD1701EB5575ED10A1EBC506012556
:10262000B5402C430846CD1701EB5575ED10034E10
:1026300006EBC515EC5400BFDEE70000DC0500200A
:1026400038B5002406E0002500E06D1CB5F57A7F62
:10265000FBD3641CB4F57A7FF5D30121082000F088
:10266000C5FA14208DF8030003208DF802004FF402
:102670008070ADF8000069460848FFF7A1FB4FF4F1
:102680000070ADF8000069460448FFF799FB01208F
:1026900000F0B4F9012000F0BDF938BD000C014094
:1026A00070B50546002411E080212141294009B17F
:1026B000012100E00021084600F0ACF9012000F003
:1026C0009DF9002000F09AF9601CC4B2082CEBDBE5
:1026D000012000F093F9002000F090F970BD10B5D2
:1026E000012000F097F9012000F088F9002000F0A7
:1026F00091F9002000F082F910BD10B5002000F023
:1027000089F9012000F07AF9012000F083F910BD69
:1027100010B5FFF795FFAE2000F088F9D52000F046
:1027200085F9802000F082F9A82000F07FF93F2091
:1027300000F07CF9D32000F079F9002000F076F960
:10274000402000F073F9A12000F070F9C82000F0DB
:102750006DF9DA2000F06AF9122000F067F98120A3
:1027600000F064F9CF2000F061F9D92000F05EF9A3
:10277000F12000F05BF9DB2000F058F9302000F088
:1027800055F9A42000F052F9A62000F04FF98D2051
:1027900000F04CF9142000F049F9AF2000F046F9A0
:1027A00010BD10B50246012000E050430B1EA1F100
:1027B0000101FAD110BD70B505460C4645F0B000D8
:1027C00000F034F9102141EA141000F02FF904F060
:1027D0000F0000F02BF970BDF8B506460F46144601
:1027E0001D46082D0CD1A4F120000E4901EB00106C
:1027F0001023082239460090304600F017F80FE009
:10280000062D0DD1A4F1200000EB4000064901EB9C
:1028100040000823062239460090304600F006F8B2
:10282000F8BD0000C84A0008B85000082DE9F0477C
:1028300007460C4690469946DDF820A07F2F01DD23
:10284000BDE8F0873F2C00DDFAE74B4642462146C3
:102850003846FFF7BDFD002570E0002669E0B81995
:102860007F2800DD67E0E11704EB517105EBE10122
:10287000072900DDE4E72046E21704EB527205EB7E
:10288000E202344B03EBC212BB19D25C2146E317C0
:1028900004EB5373DB10A4EBC30305FB086C1AF8BD
:1028A0000CC00CFA03FC42EA0C02E31704EB53736E
:1028B00005EBE303DFF89CC00CEBC31307EB060C3E
:1028C00003F80C20E11704EB517105EBE101491C01
:1028D000072900DD2BE02046E21704EB527205EBDE
:1028E000E202521C1B4B03EBC212BB19D25C214605
:1028F000E31704EB5373DB10A4EBC303C3F108032A
:1029000005FB086C1AF80CC04CFA03FC42EA0C02F6
:10291000E31704EB537305EBE3035B1CDFF834C0F0
:102920000CEBC31307EB060C03F80C2000BF701C64
:10293000C6B2464593DB00BF681CC5B2A9F10100D1
:10294000C11700EB5171012202EBE101A94284DCC5
:1029500000BF75E7DC0500202DE9F04706468946F3
:1029600017461D46DDF82080002417E0281B411E75
:102970000A20FFF716FFB7FBF0F00A21B0FBF1F2D7
:1029800001FB120000F1300A04FB0861C8B24346A3
:1029900052464946FFF720FF601CC4B2AC42E5DB5B
:1029A000BDE8F0872DE9F0410646884615461F46EA
:1029B000002409E02A5D04FB0761C8B23B4641469A
:1029C000FFF70AFF601CC4B2285D0028F2D1BDE801
:1029D000F081000010B500240BE000212046FFF735
:1029E000EAFE054901EBC410802100F02FF8601CBD
:1029F000C4B2082CF1DB10BDDC05002010B5044684
:102A000022464FF480710248FFF7BBFA10BD000068
:102A1000000C014010B5044622464FF400710248F4
:102A2000FFF7AFFA10BD0000000C014010B50446DE
:102A3000FFF755FE7820FFF733FE0020FFF730FE4A
:102A40002046FFF72DFEFFF758FE10BD70B5054676
:102A50000E46FFF744FE7820FFF722FE4020FFF7E6
:102A60001FFE002404E0285DFFF71AFE601CC4B2BC
:102A7000B442F8DBFFF741FE70BD00000149086277
:102A80007047000000000E427047000010B5244857
:102A9000408D2449098888421DD023A000F03FFAC8
:102AA0001F49488D012100F01DFA29A000F037FAD6
:102AB0001B48408D002805DD01F0FAFE25A000F03E
:102AC0002EFA04E001F0ECFE28A000F028FA1448E9
:102AD000408D14490880124890F828002949097847
:102AE00088421CD028A000F01AFA0D4991F828005D
:102AF000012100F0F7F916A000F011FA084890F84B
:102B00002800002803DD29A000F009FA02E02BA02C
:102B100000F005FA024890F828001A49087010BD24
:102B2000580B002020010020E4BA91E7ABAFE68EFD
:102B3000A7E588B63A20E7BBA7E794B5E599A8E7EB
:102B40008AB6E68081E58F98E69BB4E4B8BA2000A7
:102B50000D0A0000E7BBA7E794B5E599A8E5B7B271
:102B6000E5BC80E590AF0D0A00000000E7BBA7E7D9
:102B700094B5E599A8E5B7B2E585B3E997AD0D0A37
:102B80000000000022010020E4BA91E7ABAFE68E1E
:102B9000A7E588B63A204C4544E78AB6E68081E549
:102BA0008F98E69BB4E4B8BA200000004C4544E599
:102BB000B7B2E5BC80E590AF0D0A00004C4544E596
:102BC000B7B2E585B3E997AD0D0A000029B1064A11
:102BD000D2690243044BDA6104E0034AD2698243BA
:102BE000014BDA61704700000010024029B1064A2B
:102BF00092690243044B9A6104E0034A926982435A
:102C0000014B9A61704700000010024030B500216E
:102C10000022002400232D4D6D6805F00C0121B128
:102C2000042905D0082923D105E0294D056022E0BB
:102C3000274D05601FE0254D6D6805F47012234D8A
:102C40006D6805F48034022505EB92421CB9214DD4
:102C5000554305600BE01D4D6D6805F400351DB151
:102C60001C4D5543056002E0194D5543056002E0D7
:102C7000174D056000BF00BF144D6D6805F0F001F1
:102C80000909154D6B5C0568DD4045600F4D6D68A9
:102C900005F4E061090A104D6B5C4568DD40856014
:102CA0000A4D6D6805F46051C90A0B4D6B5C4568AF
:102CB000DD40C560054D6D6805F44041890B074D49
:102CC0006B5CC568B5FBF3F5056130BD00100240D3
:102CD00000127A0000093D000000002010000020D2
:102CE00010B501460022002300204A11012A02D11A
:102CF000094C236806E0022A02D1074C236A01E04E
:102D0000054C636A01F01F02012494401C400CB181
:102D1000012000E0002010BD0010024001490860C1
:102D2000704700008004424201490860704700007B
:102D30003C0442420249096A0143014A1162704758
:102D4000001002400348008840F01000014908804C
:102D50007047000004280040034800884FF6EF71D8
:102D600008400149088070470428004000210348BA
:102D70000188001F008841EA004070471C2800407D
:102D800000B50246FFF7DEFF100C03490880091D5D
:102D90000A80FFF7E1FF00BD1828004000B5024699
:102DA000FFF7D0FFC2F3034003490880091D0A80E2
:102DB000FFF7D2FF00BD00000828004000BF034815
:102DC000008800F020000028F9D070470428004057
:102DD000074800884FF6F77108400549088000BF92
:102DE0000348008800F008000028F9D07047000070
:102DF000042800407047000000B587B00121880317
:102E0000FFF7F4FE01210420FFF7F0FE18208DF8F3
:102E10001B004FF40070ADF8180003208DF81A0065
:102E200006A92148FEF7CCFF48208DF81B004FF47F
:102E30008060ADF8180003208DF81A0006A91A4822
:102E4000FEF7BEFF4FF4165002900020ADF81400BC
:102E50000C20ADF812000020ADF81000ADF80E0007
:102E6000ADF80C0002A9114800F00EFD012240F25D
:102E700025510E4800F0E2FC4FF4A060FFF79EFAE7
:102E800025208DF8040001208DF807008DF805003D
:102E90008DF8060001A8FFF759FA0121034800F058
:102EA0008AFC07B000BD0000000801400038014066
:102EB00010B50246012000E050430B1EA1F10101B4
:102EC000FAD110BD10B504462146054800F04DFD6D
:102ED00000BF8021024800F07AFC0028F9D010BD24
:102EE000003801402DE9F04106460C46002512E06D
:102EF000601B411E0A20FFF7DBFFB6FBF0F00A2142
:102F0000B0FBF1F201FB120000F130073846FFF789
:102F1000D9FF681CC5B2A542EADBBDE8F08170B5F7
:102F20000446002504E0605DFFF7CCFF681CC5B2D5
:102F3000605D0028F7D170BD10B500F001F810BD3C
:102F40000CB50020019000903348006840F48030B8
:102F50003149086000BF3048006800F4003000903C
:102F60000198401C0190009818B90198B0F5A06F25
:102F7000F1D12948006800F4003010B10120009020
:102F800001E0002000900098012843D12348006808
:102F900040F01000214908600846006820F0030056
:102FA00008600846006840F0020008601A4840685F
:102FB000194948600846406848600846406840F43F
:102FC000806048600846406820F47C1048600846ED
:102FD000406840F4E81048600846006840F080709F
:102FE000086000BF0C48006800F000700028F9D0AD
:102FF0000948406820F003000749486008464068D7
:1030000040F00200486000BF0348406800F00C0038
:103010000828F9D10CBD0000001002400020024039
:103020002DE9F04727480078FDF713FB2649274A8A
:10303000127841F8220025490978481CC11700EB95
:1030400091618911A0EB8111204A117028238022FF
:1030500014210020FFF7BCF901242EE060064FEA9E
:103060001068601C4006050E174951F824004FF007
:103070008041FDF728F98146FDF7F0FAC0F13C00E8
:10308000C6B2114A611C52F821004FF08041FDF791
:103090001AF98146FDF7E2FAC0F13C00C7B2802D73
:1030A00009DA402E07DA402F05DA3B462A46314638
:1030B0004046FFF7E1F9601CC4B2402CCEDBBDE80E
:1030C000F087000014010020840D0020230100205F
:1030D00010B500F097F910BD10B51348006840F026
:1030E00001001149086008464068104908400E492F
:1030F0004860084600680E4908400B4908600846C9
:10310000006820F4802008600846406820F4FE0033
:1031100048604FF41F008860FFF70EFF4FF000601B
:103120000449086010BD0000001002400000FFF8D4
:10313000FFFFF6FE08ED00E02DE9F04188B00546FE
:103140000E4617469846002428E00120A040154965
:103150000988084000BB1C2101A8FDF750F812485F
:10316000CDE901560068CDF8188003908DF81C70E9
:10317000C4EBC4010D4A02EB81001C2201A9FDF73A
:1031800025F80120A040074909880843054908801F
:10319000204608B0BDE8F081601CC4B20A2CD4DB24
:1031A000FF20F6E7DE000020D8000020400A0020C3
:1031B00010B54FF48C710548FDF721F80020044943
:1031C0000860044908800449088010BD400A0020B6
:1031D000D8000020DC000020DE00002010B526A36F
:1031E00000220A212648FFF7A7FF2649087026A3D8
:1031F000022232212648FFF79FFF2649087026A3A6
:10320000012264212648FFF797FF2649087026A36C
:1032100001224FF47A712648FFF78EFF2549087086
:1032200025A3022241F288312648FFF785FF26496F
:10323000087026A3022247F230512748FFF77CFF8F
:103240002649087026A3012264212948FFF774FF4C
:10325000044628A3032242F210712A48FFF76CFFAC
:103260002949087029A302224FF4FA612B48FFF77D
:1032700063FF2B49087010BD4B65795363616E0085
:10328000F92100081701002047657444617461004A
:103290008D1F000818010020416C61726D00000054
:1032A0000910000819010020495744475F494400AC
:1032B000792000081B010020574946495F496E6983
:1032C00074000000953A00081C01002075706C6FB6
:1032D0006164494400000000C14800081D0100204D
:1032E000436C6F7564436F6E74726F6C0000000006
:1032F0008D2A0008455350383236364D6F6E69744A
:103300006F720000B53400081E01002073686F77EB
:1033100054656D704875696D0000000075390008CE
:103320001F0100202DE9F0413248008808B9BDE8AE
:10333000F08100255AE0002454E00120A0402E49ED
:103340000988084000284BD00120A040294909885D
:103350000840E8B3C4EBC400284901EB8000007EBC
:10336000A8423DD1C4EBC40001EB8000007C78BBD7
:1033700000BF0120A0401F49098881431D480180EA
:1033800000BF0120C4EBC4011C4A02EB8101087498
:103390001B480768C4EBC40152F821008047184855
:1033A0000068C61BC4EBC400144901EB8000C06870
:1033B000B04204D2C4EBC40001EB8000C6601048E8
:1033C0000068C4EBC4010D4A02EB8101886000E093
:1033D00006E00020C4EBC40102EB8101087400BFC9
:1033E000601CC4B20A2CA8DB681CC5B2042DA2DB89
:1033F00000BF9CE7DC000020DE000020400A002027
:10340000D800002027480068401C28B125480068E3
:10341000401C2449086002E0002022490860002086
:103420003DE001218140204A12881140A9B3C0EB40
:10343000C0021E4B03EB820292681A4B1B689A4231
:1034400009D8C0EBC002194B03EB82029268154BFE
:103450001B68991A0BE0C0EBC002144B03EB82020D
:103460009268C2F1FF320F4B1B681A44511CC0EB2B
:10347000C0020E4B03EB820252688A420CD8C0EBAA
:10348000C00203EB8202127C32B901228240084B57
:103490001B881A43064B1A8000BF411CC8B20A2879
:1034A000BFDB7047D8000020DE000020400A00206B
:1034B000DC00002070B500BF30480068044630488A
:1034C0000068201A42F21071884256D32DA0FFF7EF
:1034D00026FD34A0FFF723FD3448FFF720FD34A07C
:1034E000FFF71DFD3348FFF71AFD33A0FFF717FD67
:1034F00032A0FFF714FD34480078022803D133A02E
:10350000FFF70DFD0AE030480078012803D133A011
:10351000FFF705FD02E039A0FFF701FD20A0FFF74E
:10352000FEFC39A0FFF7FBFC3A490868FDF796F866
:1035300005460221FFF7D6FC37A0FFF7F0FC35491E
:103540004868FDF78BF805460221FFF7CBFC36A053
:10355000FFF7E5FC35A0FFF7E2FC01211A480078EF
:10356000FFF7C0FC0EA0FFF7DAFC3448FFF7D7FCEA
:1035700033A0FFF7D4FC0248046070BDD8000020DF
:10358000240100200D0A3D3D3D20E7B3BBE7BB9F72
:10359000E78AB6E68081E4BFA1E681AF203D3D3DEC
:1035A0000D0A0000576946693A20000040000020DB
:1035B0002028000072000020290D0A00E5B7B4E6BB
:1035C000B395E4BA913A2000E1000020E4BA91E713
:1035D000ABAFE5B7B2E8BF9EE68EA5005769466976
:1035E000E5B7B2E8BF9EE68EA5EFBC8CE69CAAE8E4
:1035F000BF9EE68EA5E4BA91E7ABAF00E69CAAE8D1
:10360000BF9EE68EA5000000E6B8A9E5BAA63A205E
:1036100000000000580B0020C2B0432020E6B9BFD4
:10362000E5BAA63A20000000250D0A00636F6E6E11
:103630006563745F666C61673A200000885A000811
:103640003D3D3D3D3D3D3D3D3D3D3D3D3D3D3D3DAA
:103650003D3D3D0D0A0D0A0010B540F225512148AF
:1036600000F0C2F801283CD11E4800F079F9C4B23C
:103670001D48007858B9402C2DD11C48007850BB0B
:1036800001201949087000201949087023E01648E4
:10369000007801280FD10D2C03D1022012490870A7
:1036A00019E0144812490978445411480078401C24
:1036B0000F4908700FE00C48007802280BD10A2C43
:1036C00009D10020084908700A49094A127888542B
:1036D00001200649087040F22551024800F05CF8CC
:1036E00000BF10BD00380140D5000020D4000020EC
:1036F000D6000020DC09002010B540F225511C48FE
:1037000000F072F8D0B11A4800F02AF9C4B2194892
:10371000B0F80002B0F5FF7F0ADC1648B0F80012DE
:10372000B0F80002401C134AA2F8000210464454AC
:1037300040F225510E4800F02FF800BF40F224411E
:103740000B4800F051F888B1094800F009F9002051
:103750000849B1F80012074A50540120114681F877
:10376000020240F22441024800F016F810BD0000A9
:10377000004400402C01002010B5044600BF402149
:10378000044800F024F80028F9D02146014800F050
:10379000ECF810BD0044004010B50022002340F6B4
:1037A0006A14A14200D100BF0A1201249440A3B2BE
:1037B000DC43048010BD21B1828942F40052828131
:1037C00004E082894DF6FF731A40828170470246F9
:1037D0000020B1F5007F00D100BF13880B400BB172
:1037E000012000E00020704770B50246002400234D
:1037F0000025002040F66A16B14200D100BFC1F397
:10380000421501F01F03012606FA03F3012D02D130
:103810009689334006E0022D02D1168A334001E03A
:10382000968A33400C12012606FA04F416883440B6
:1038300013B10CB1012000E0002070BDF0B50346CB
:10384000002400260025002040F66A17B94200D166
:1038500000BF1846C1F3421401F01F06012707FA02
:1038600006F5012C01D10C3004E0022C01D11030FE
:1038700000E014301AB107682F43076002E00768C0
:10388000AF430760F0BD00002DE9F04786B0054664
:103890000E460024A24600BFA1460027B08900B111
:1038A00000BF2F462C8A4CF6FF700440F08804437A
:1038B0002C82AC894EF6F3100440B088318908435D
:1038C000718908430443AC81AC8A4FF6FF40044041
:1038D000B0890443AC8201A8FFF798F91F488742DA
:1038E00002D1DDF810A001E0DDF80CA0A88900F4F9
:1038F000004040B10AEBCA0000EB0A1031684900F1
:10390000B0FBF1F807E00AEBCA0000EB0A103168DF
:103910008900B0FBF1F86420B8FBF0F00401200945
:10392000642101FB1089A88900F4004040B13220D5
:1039300000EBC900B0FBF1F000F00700044308E021
:10394000322000EB09106421B0FBF1F000F00F0011
:1039500004432C8106B0BDE8F08700000038014028
:1039600001468888C0F308007047C1F308028280CE
:103970007047000008B51C491C48FDF73CFE1B4879
:103980000078FCF766FE1A49086017480078FCF7D3
:1039900060FE174948601023802200210846FEF788
:1039A00017FD062313A200210846FEF7FBFF06239E
:1039B00012A200213620FEF7F5FF06200223009018
:1039C0000A48027800212420FEF7C6FF06200223C1
:1039D00000900548027800215A20FEF7BDFFFFF74E
:1039E0001FFBFEF7F7FF08BD1501002014010020A2
:1039F000580B002074656D700000000068756D69DB
:103A00000000000000BFFEE700B5ADF5017D4FF4FA
:103A1000007101A8FCF7F3FB4FF4007101A8FCF75B
:103A2000EEFB06A101A800F07BF801A800F054F815
:103A30000020074908700DF5017D00BD434D443A53
:103A4000464F524745545F574946497D00000000A4
:103A5000E100002000B5ADF5017D4FF4007101A833
:103A6000FCF7CDFB4FF4007101A8FCF7C8FB05A1E2
:103A700001A800F055F801A800F02EF80DF5017D21
:103A800000BD0000434D443A4745545F54494D45FD
:103A90007D00000010B50A480078022802D1FFF727
:103AA000D9FF0CE006480078012803D105A0FDF7F6
:103AB00029FC04E00248007808B9FDF7C3FA10BDFC
:103AC000E1000020434D443A434F4E4E4543544598
:103AD000445F54435000000010B5044603E014F85E
:103AE000010BFFF749FE20780028F8D110BD000037
:103AF0000FB41CB50246002007AC00290BD0491EAC
:103B0000CDE90021054B6A462146069800F006F9EA
:103B1000009A002111701CBC5DF814FB4B44000896
:103B20000FB4084B10B504A902AA039800F0F6F8E8
:103B3000044602A9002000F093FC204610BC5DF86A
:103B400014FB000061440008004870472801002071
:103B500001480068704700002801002002E008C802
:103B6000121F08C1002AFAD170477047002001E0F7
:103B700001C1121F002AFBD17047000001490860F3
:103B800070470000280100202DE9FF5F82B000216E
:103B9000DDE90430020DDDF840B0034318D044F6EF
:103BA0001050A2F2FF3242431514119801281FD081
:103BB000A5EB0B00401C5FEA000A4FF000064E4FD9
:103BC000DFF83891B046504615D5CAF1000413E02D
:103BD000119801244AA3012801D16FEA0B01029830
:103BE000119AC0E90031C0E9024206B0BDE8F09F79
:103BF000CBF10000DFE704460021404A491842EBC0
:103C00000450CDE9001012E0E00707D032463B46F1
:103C100040464946FCF73CFC8046894632463B46D6
:103C200010461946FCF734FC06460F466410002C7B
:103C3000EAD1DDE90401DDE90023BAF1000F06DA7B
:103C4000FCF726FC42464B46FCF722FC05E0FCF75D
:103C500091FC42464B46FCF78DFC04460E46002282
:103C6000284BFCF723FD03D84FF0FF30014607E057
:103C70000022254B20463146FCF763FBFCF728FF6A
:103C8000102409E0002C0ADB0A220023FCF758FD6F
:103C9000039B30321A55641E50EA0102F2D1641CB3
:103CA000039AC4F111031444119A012A03D001228A
:103CB00008430DD10AE0084304D000204FF0110B57
:103CC000119072E7A3EB0B056D1E0DE05B4504DD63
:103CD0004FF0000205F1010504E003DA4FF00002A5
:103CE000A5F10105002AECD002981199C0E9023132
:103CF000C0E9004579E70000000014400000F03FF3
:103D0000300000000000F0430000E03F30380A2897
:103D100001D2012070470020704700002DE9FF4FBD
:103D200095B09B468946064600250FE2252877D1A7
:103D300000242746F84A0121059400E0044316F8C0
:103D4000013F203B01FA03F01042F7D130782A28D6
:103D500011D06FF02F033078A0F13002092A16D865
:103D6000059A44F0020402EB820203EB4202104483
:103D7000761C0590EFE759F8042B0592002A03DA28
:103D8000504244F40054059044F00204761C30780C
:103D90002E2816D116F8010F44F004042A280DD05D
:103DA0006FF02F023078A0F13003092B09D807EB10
:103DB000870302EB4303C718761CF3E759F8047B2B
:103DC000761C30786C280FD006DC4C2817D0682879
:103DD0000DD06A2814D104E0742810D07A280FD1AD
:103DE0000DE044F400140AE044F4801401E044F4CB
:103DF00040147278824202D104F58014761C761C3D
:103E0000307866280BD013DC582877D009DC0028DE
:103E100075D04528F6D04628F4D047281AD19DE120
:103E200018E0632835D0642879D0652812D195E14F
:103E3000702873D008DC6728F1D069286FD06E280D
:103E40000DD06F2806D1B5E073282CD0752875D019
:103E5000782874D05A46179990476D1C75E1C4F3C1
:103E60000250022809D003280DD0D9F800100428E8
:103E70000DD00D6009F1040967E1D9F80010EA17C7
:103E8000C1E90052F6E7D9F800100D80F2E70D7095
:103E9000F0E719F8041B8DF8001000208DF80100E0
:103EA000EA46012003E059F804AB4FF0FF30610708
:103EB0004FF0000102D40DE008F101018846B9423B
:103EC0000FDA8045F8DB1AF808100029F4D108E071
:103ED00008F1010188468142FADB1AF8081000292E
:103EE000F6D105985B46A0EB080721463846179A9D
:103EF00000F094FA284400EB080507E04DE029E1C2
:103F00000DE01AF8010B5A4617999047B8F10108CD
:103F1000F7D25B4621463846179A13E142E00A225F
:103F20000092C4F302524FF0000A022A08D059F856
:103F300004CB032A4FEAEC710AD00DE029E02AE015
:103F400009F1070121F00702F2E802C1914609E0F8
:103F50000FFA8CFC4FEAEC71042A03D14FFA8CFC67
:103F60004FEAEC71002907DA0A460021DCF1000C67
:103F700061EB02012D2202E0220504D52B228DF8EF
:103F80000420012203E0E20701D02022F7E7904657
:103F900059E00A2102E010220DE010214FF0000A42
:103FA00000910BE010224FF0000A44F004040827AF
:103FB000009203E008224FF0000A0092C4F302527C
:103FC000022A05D059F804CB0021032A08D009E0C1
:103FD00009F1070121F00702F2E802C1914605E06C
:103FE0001FFA8CFC042A01D10CF0FF0C4FF00008E2
:103FF000220728D5702806D0009B83F0100353EACF
:104000000A0305D00EE040228DF80420012208E0CA
:104010005CEA010206D030228DF804208DF80500FC
:1040200002229046009B83F0080353EA0A030AD158
:104030005CEA010201D1620705D530228DF8042027
:104040004FF001087F1E582804D034A003900EA81A
:1040500002900DE036A0F9E753466046009AFCF75F
:104060006FFB84460398825C0298401E02900270A7
:104070005CEA0100F0D1029806A9081A00F1200AB2
:10408000600702D524F4803400E00127574502DDA3
:10409000A7EB0A0000E0002000EB0A010090059861
:1040A0004144401A0590E00306D45B462146179A26
:1040B000059800F0B3F90544002706E001A85A4628
:1040C000C05D179990476D1C7F1C4745F6DBE003E8
:1040D0000CD55B462146179A059800F09FF90544D8
:1040E00004E030205A46179990476D1C0099481EED
:1040F00000900029F5DC08E0029802995A46007801
:10410000491C0291179990476D1CBAF10001AAF160
:10411000010AF1DC65E10000092801003031323389
:1041200034353637383961626364656600000000F3
:1041300030313233343536373839414243444546DD
:104140000000000000F058F90544761C3078002883
:104150007FF4ECAD19B02846BDE8F08F620700D4BB
:10416000062709F1070222F0070CFCE80223E146CA
:1041700003F000485FEA080C02D00FF2702C0DE04B
:104180005FEA045C02D50FF2682C07E05FEAC47CAA
:1041900002D00FF2602C01E0AFF2700C4FF0FF384C
:1041A00023F00043CDF850C065280CD006DC45282C
:1041B00009D046281DD047283DD13DE0662818D0BB
:1041C00067287ED138E00021112F01DB112000E0AB
:1041D000781CCDE9000106A90EA8FFF7D5FCDDE9A2
:1041E0000F010E9A03910021009207F1010A049138
:1041F0004DE04FF000400097CDE9011006A90EA850
:10420000FFF7C2FCDDE90F0203920E9B1199002219
:10421000DDF80CA00093049211B9791C00EB010A9F
:10422000B7EB0A0004D4C0F1FF3007F1010A049093
:10423000AAEB0700019044E0012F00DA01270021DA
:10424000112F01DD112000E03846CDE9000106A95B
:104250000EA8FFF799FCDDE90F010E9A03910021EA
:1042600004910092BA4621070CD40399514500DA13
:104270008A46BAF1010F05DD009AAAF10101515CED
:10428000302908D0B84202DA10F1040F06DA012111
:10429000CDE9011015E0AAF10101E9E7002805DCEC
:1042A000049901440491AAEB000102E0411C51452C
:1042B00000DD8A460499401A401C01904FF00040EE
:1042C0000290200704D40198504501DBCDF804800A
:1042D00000208DF84F0002980DF14F07B0F1004F0C
:1042E00025D02B200E9002984FF0020800280CDAFF
:1042F000404202902D200E9007E00A210298FCF720
:1043000009FA3031029007F8011DB8F10001A8F157
:104310000108F2DC02980028EFD1791E0E9808708F
:10432000307800F0200040F0450007F8020D12A898
:10433000C01B00F107081498007800B1012000EBC1
:104340000A01019801EBE07105984144401A401EB2
:104350000590E00306D45B462146179A059800F0C5
:104360005DF805441498007818B15A46179990479B
:104370006D1CE00324D55B462146179A059800F092
:104380004DF805441CE00498002807DBDDE9030133
:10439000884203DD0098405C179901E017993020AE
:1043A0005A469047049805F10105401C0490019875
:1043B000401E019004D12E205A46179990476D1C3B
:1043C000BAF10001AAF1010ADDDC05E017F8010BE2
:1043D0005A46179990476D1CB8F10001A8F10108E1
:1043E000F4DC5B462146179A0598ABE62D000000E9
:1043F0002B000000200000002DE9F04104460025BC
:104400001E461746880404D405E039462020B047EC
:104410006D1C641EF9D52846BDE8F0812DE9F041F8
:10442000044600251E469046C80301D5302700E00B
:104430002027880404D505E041463846B0476D1C66
:10444000641EF9D52846BDE8F0814A68002A06D0E6
:104450000A68531C0B6010704868401E4860704723
:104460000A68531C0B601070704730B583B0044667
:10447000FFF76EFB05460020CDE90000024621460D
:104480006846FCF726FA2846FFF778FBDDE90001CD
:1044900003B030BD0146302905DB392903DCA1F129
:1044A0003000C0B270470020FCE70000FEF714FEA9
:1044B000FDF702FBFDF7F6FD00BF5048006800BFA6
:1044C0004FA0FEF72CFD97E000BF4C480068044663
:1044D000FDF77CFD02281BD14BA14D48FBF79AFE4E
:1044E00028B94CA14A48FBF795FE00280DD04BA0F7
:1044F000FEF715FD01205649087056A15848FBF7F4
:10450000BCFE58A0FEF70BFD02E061A0FEF707FD20
:10451000FDF73EFD012804D169A0FEF700FDFCF780
:10452000C5FDFDF76FFD032828D170480078401CB9
:104530006E49087008460078032828DB6CA0FEF757
:10454000EEFC43480078012809D102204049087058
:104550007648FEF7E4FC76A0FEF7E1FC0AE07DA0D9
:10456000FEF7DDFC01213A480078FEF7BBFC7DA098
:10457000FEF7D5FC00205D49087008E05B48007834
:10458000002804DD59480078401E58490870FDF79E
:1045900055FD042826D17CA0FEF7C1FC84A0FEF7BF
:1045A000BEFC87490868FCF759F805460221FEF76A
:1045B00099FC84A0FEF7B3FC84A0FEF7B0FC804910
:1045C0004868FCF74BF805460221FEF78BFC83A0F8
:1045D000FEF7A5FC82A0FEF7A2FC00F071F985A011
:1045E000FEF79DFCFDF7E6FD7548C069401C744967
:1045F000C861FEF797FE00BF66E70000D800002004
:104600006D6F6465000000003137322E313638009E
:10461000720000203139322E31363800E68C89E9BB
:1046200094AE32E68C89E4B88B202D20E6898BE5A8
:104630008AA8E69BB4E696B057694669E8BF9EE64D
:104640008EA5E78AB6E680812E2E2E0D0A00000088
:10465000E1000020E5B7B2E8BF9EE68EA5000000AD
:104660000001002057694669E8BF9EE68EA5E78AEB
:10467000B6E68081E5B7B2E69BB4E696B0E4B8BA98
:10468000EFBC9AE5B7B2E8BF9EE68EA50D0A000022
:10469000E68C89E994AE32E68C89E4B88B202D2033
:1046A000E4BD86E69CAAE6A380E6B58BE588B0E685
:1046B0009C89E695884950E59CB0E59D800D0A00EF
:1046C000E68C89E994AE31E68C89E4B88B202D2004
:1046D000E5B09DE8AF95E8BF9EE68EA5E5B7B4E6E8
:1046E000B395E4BA912E2E2E0D0A00001C00002076
:1046F000E68C89E994AE33E8BF9EE68C8933E6AC5C
:10470000A1202D20E6898BE58AA8E8AEBEE7BDAEE4
:10471000E5B7B4E6B395E4BA91E8BF9EE68EA5E7A7
:104720008AB6E680812E2E2E0D0A0000105A00084F
:10473000E78EB0E59CA8E58FAFE4BBA5E5B09DE8AA
:10474000AF95E4B88AE4BCA0E695B0E68DAEE4BAD5
:10475000860D0A00E5BD93E5898DE78AB6E680817E
:104760003A200000202D20E8AFB7E58588E7A1AE0C
:10477000E4BF9D57694669E8BF9EE68EA5E6ADA3F6
:10478000E5B8B80D0A0000000D0A3D3D3D20E68960
:104790008BE58AA8E4B88AE4BCA0E695B0E68DAEC5
:1047A000E6B58BE8AF95203D3D3D0D0A00000000C9
:1047B000E5BD93E5898DE6B8A9E5BAA63A200000E3
:1047C000580B0020C2B0430D0A000000E5BD93E580
:1047D000898DE6B9BFE5BAA63A200000250D0A008A
:1047E000E5BC80E5A78BE4B88AE4BCA02E2E2E0D94
:1047F0000A0000003D3D3D3D3D3D3D3D3D3D3D3DD3
:104800003D3D3D3D3D3D3D3D3D3D3D3D0D0A0000B5
:1048100000B502465078FFF73DFE03461078FFF7DB
:1048200039FE00EB800003EB4000C0B200BD00B5D4
:1048300002461078FFF72EFE4FF47A7100FB01F369
:104840005078FFF727FE00EBC00101EB001003EBEF
:1048500080039078FFF71EFE00EB800003EB40031F
:10486000D078FFF717FE184480B200BD08B50121CB
:104870000420FEF7BBF910208DF803000220ADF8EC
:10488000000003208DF8020069460448FDF798FAFD
:1048900002210248FDF771FB08BD0000000801403D
:1048A00010B502210148FDF768FB10BD000801406A
:1048B00010B502210148FDF762FB10BD0008014060
:1048C0002DE9F04786B02C480078022838D1010243
:1048D0002A48FBF794FC2A490868FBF7D3FE804678
:1048E0000022284BFBF7E2FE01D227A000E028A01F
:1048F000824623494868FBF7C5FE06460F46204915
:104900000868FBF7BFFE04460D461D48408D08B100
:1049100021A000E021A022A225A18DE8F0040590AD
:104920001648FFF7FDF81548FFF7D6F82FA0FEF759
:10493000F6FA1248FEF7F3FA33A0FEF7F0FA18E0A1
:104940000D480078012806D130A0FEF7E8FA3BA018
:10495000FEF7E5FA02E042A0FEF7E1FA4CA0FEF70E
:10496000DEFA012104480078FEF7BCFA4EA0FEF7FB
:10497000D6FA06B0BDE8F087E1000020840B0020E5
:10498000580B002000003E404869676800000000A6
:104990004E6F726D616C00004F4E00004F46460036
:1049A000434D443A53454E445F4441544100000056
:1049B00025732C7B2254656D70223A252E31662C8E
:1049C0002248756D69223A252E31662C2253746176
:1049D000747573223A222573222C2252656C6179F8
:1049E000223A222573222C7D0000000055706C6F46
:1049F0006164696E6720746F204261466120436C78
:104A00006F75643A200000000D0A0000E99499E8EF
:104A1000AFAF3A2057694669E5B7B2E8BF9EE68E68
:104A2000A5EFBC8CE4BD86E5B7B4E6B395E4BA91D6
:104A3000E69CAAE8BF9EE68EA50D0A00E8AFB7E5A2
:104A40008588E68C89E68C89E994AE31E8BF9EE6DC
:104A50008EA5E5B7B4E6B395E4BA910D0A0000005F
:104A6000E99499E8AFAF3A2057694669E69CAAE80D
:104A7000BF9EE68EA5EFBC8CE697A0E6B395E4B8A2
:104A80008AE4BCA0E695B0E68DAE0D0A00000000F9
:104A9000E5BD93E5898DE8BF9EE68EA5E78AB6E67B
:104AA00080813A20000000002028E99C80E8A6814F
:104AB000E78AB6E6808132E6898DE883BDE4B88A6C
:104AC000E4BCA0290D0A0000000000000000000066
:104AD0000000000000000000000000F800000000DE
:104AE000000000333000000000160E00160E00001B
:104AF000000000000000000040C07840C078400086
:104B0000043F04043F040400007088FC08300000E7
:104B1000001820FF211E0000F008F000E01800003F
:104B200000211C031E211E0000F0088870000000F8
:104B30001E21232419272110000000160E0000005A
:104B40000000000000000000000000E01804020067
:104B5000000000071820400000020418E0000000D8
:104B60000040201807000000404080F080404000D6
:104B70000202010F01020200000000F0000000002C
:104B80000101011F01010100000000000000000000
:104B900000B07000000000000000000000000000F5
:104BA00000010101010101010000000000000000FE
:104BB0000030300000000000000000008060180499
:104BC000006018060100000000E010080810E00076
:104BD000000F102020100F00001010F8000000003F
:104BE0000020203F20200000007008080888700086
:104BF0000030282422213000003008888848300006
:104C00000018202020110E000000C02010F8000025
:104C100000070424243F240000F8088888080800BE
:104C20000019212020110E0000E0108888180000D3
:104C3000000F112020110E0000380808C8380800A5
:104C40000000003F00000000007088080888700025
:104C5000001C222121221C0000E010080810E000A6
:104C60000000312222110F00000000C0C00000002F
:104C70000000003030000000000000C0C000000054
:104C8000000080B07000000000008040201008008C
:104C90000001020408102000404040404040400015
:104CA00004040404040404000008102040800000F0
:104CB0000020100804020100007048080808F000F5
:104CC0000000003036010000C030C828E810E000C5
:104CD0000718272423140B000000C038E000000050
:104CE000203C23020227382008F8888888700000BA
:104CF000203F202020110E00C0300808080838008E
:104D0000071820202010080008F808080810E00004
:104D1000203F202020100F0008F88888E8081000A5
:104D2000203F20202320180008F88888E808100079
:104D3000203F200003000000C030080808380000B1
:104D400007182020221E020008F808000008F808B2
:104D5000203F210101213F20000808F80808000039
:104D60000020203F2020000000000808F80808006C
:104D7000C08080807F00000008F888C028180800E4
:104D8000203F20012638200008F80800000000001D
:104D9000203F20202020300008F8F800F8F8080014
:104DA000203F003F003F200008F830C00008F8080E
:104DB000203F200007183F00E01008080810E0001E
:104DC0000F10202020100F0008F808080808F00035
:104DD000203F210101010000E01008080810E00058
:104DE0000F18242438504F0008F8888888887000ED
:104DF000203F2000030C302000708808080838008D
:104E00000038202121221C00180808F80808180082
:104E10000000203F2000000008F808000008F80803
:104E2000001F202020201F000878880000C83808B4
:104E3000000007380E010000F80800F80008F8002C
:104E4000033C0700073C03000818688080681808C6
:104E500020302C03032C30200838C800C838080044
:104E60000000203F2000000010080808C838080093
:104E70002038262120201800000000FE0202020037
:104E80000000007F40404000000C30C000000000E7
:104E9000000000010638C00000020202FE0000000F
:104EA000004040407F00000000201008040810204F
:104EB00000000000000000000000000000000000F2
:104EC00080808080808080800002040800000000D4
:104ED00000000000000000000000808080800000D2
:104EE0000019242222223F2008F8008080000000C0
:104EF000003F112020110E00000000808080000083
:104F0000000E112020201100000000808088F80091
:104F1000000E112020103F200000808080800000C3
:104F2000001F222222221300008080F08888881827
:104F30000020203F20200000000080808080800032
:104F4000006B94949493600008F8008080800000C7
:104F5000203F210000203F200080989800000000A2
:104F60000020203F202000000000008098980000D2
:104F700000C08080807F000008F8000080808000F2
:104F8000203F24022D302000000808F80000000017
:104F90000020203F202000008080808080808000D2
:104FA000203F20003F20003F0080800080800000E4
:104FB00000203F2100203F200000808080800000F2
:104FC000001F202020201F00808000808000000023
:104FD00080FFA12020110E00000000808080800052
:104FE000000E112020A0FF80808080008080800043
:104FF00020203F2120000100000080808080800070
:105000000033242424241900008080E080800000E4
:105010000000001F20200000808000000080800031
:10502000001F202020103F20808080000080808092
:1050300000010E3008060100808000800080808022
:105040000F300C030C300F00008080008080800047
:105050000020312E0E312000808080000080808072
:1050600080818E7018060100008080808080800022
:105070000021302C2221300000000000807C020240
:1050800000000000003F404000000000FF00000062
:1050900000000000FF0000000002027C8000000011
:1050A0000040403F00000000008040408000008041
:1050B00000000000000101000000000000000000EE
:1050C000002F000000000700070000147F147F1469
:1050D00000242A7F2A1200231308646200364955EF
:1050E000225000000007000000001C2241000000C8
:1050F00041221C000014083E08140008083E08085D
:10510000000000A0600000080808080800006060B7
:105110000000002010080402003E5149453E0000F6
:10512000427F4000004261514946002141454B31D8
:10513000001814127F10002745454539003C4A49A4
:105140004930000171090503003649494936000616
:105150004949291E0000363600000000563600007E
:1051600000081422410000141414141400004122F9
:105170001408000201510906003E4955592E007CD1
:105180001211127C007F49494936003E41414122BB
:10519000007F4141221C007F49494941007F0909A4
:1051A0000901003E4149497A007F0808087F000054
:1051B000417F4100002040413F01007F081422410F
:1051C000007F40404040007F020C027F007F0408C7
:1051D000107F003E4141413E007F09090906003E23
:1051E0004151215E007F091929460046494949314C
:1051F0000001017F0101003F4040403F001F20406F
:10520000201F003F4038403F00631408146300072C
:105210000870080700615149454300007F41410083
:10522000000204081020000041417F000004020138
:105230000204004040404040000001020400002001
:1052400054545478007F484444380038444444203F
:1052500000384444487F00385454541800087E09EC
:1052600001020018A4A4A47C007F080404780000B4
:10527000447D4000004080847D00007F1028440071
:105280000000417F4000007C04180478007C080482
:10529000047800384444443800FC242424180018BE
:1052A000242418FC007C08040408004854545420AA
:1052B00000043F444020003C4040207C001C204033
:1052C000201C003C4030403C004428102844001C76
:1052D000A0A0A07C004464544C440000087F41001E
:1052E0000000007F00000000417F08000008040863
:1052F0001008E6B8A9001060028C0000FE9292929D
:105300009292FE00000004047E01407E42427E42F2
:105310007E42427E4000E5BAA6000000FC24242420
:10532000FC252624FC242424040040308F80844C57
:1053300055252525554C80808000E5858900404015
:10534000424458C0407F40C05048464040008080A2
:10535000402018070000003F404040407800E6B978
:10536000BF001060028C00FE929292929292FE0018
:10537000000004047E014448507F40407F50484470
:105380004000E7A9BA00100C4424140405060404E4
:10539000142444140C00004040414141417F4141EC
:1053A000414140400000E6B0940020104C47545466
:1053B0005454545454D4040400000000000000006D
:1053C00000000000000F3040F000E8B4A80000002A
:1053D000FE121292929292FF919191911000806030
:1053E0001F80805F4020100E1010205F8000E98732
:1053F0008F00202020BEAAAAAAAAAAAAAABE20205C
:105400002000008080AFAAAAAAFFAAAAAAAF808023
:105410000000E697B60000FC848484FC00101010A5
:105420001010FF101000003F1010103F0000010688
:1054300040807F000000E997B40000F8010600F00A
:10544000121212F2020202FE000000FF0000001F12
:105450001111111F0040807F0000E881940002FEBE
:105460009292FE0200101116F01413100000101F8B
:105470000808FF048141310D030D31418100E7BD72
:10548000910000FE0222428272022242827202FED9
:10549000000000FF100806010E100806014E807F74
:1054A0000000E4B8AD000000F010101010FF101064
:1054B0001010F000000000000F04040404FF0404B6
:1054C00004040F000000E99BB6000000E0FCFFFFB1
:1054D0000707070F0F0FFFFF00000030FFFFFFF36C
:1054E000F0F0E0E0E0E0FFFF0000E4B88000000042
:1054F000000018381C1E0FFFFF0F00000000000006
:10550000000000000000FFFFFF0000000000E4BA00
:105510008C0000081C1E0E0F07078FDEFCFC7800B5
:1055200000000000C0E0F8FCFEEFE7E3E1E06060AF
:105530000000E4B88900000000000303C7E7E7F7B4
:10554000FF3F1E0E0E00007070707060E1E3E3E339
:10555000E3FF7F1F0600E59B9B000000E0F8FF1FB4
:1055600007000000FEFE1E000000040F0F0F0C0CD1
:105570000C0C0CFFFFFF0C0C0C0CE4BA94000000A8
:105580000000FEFFFFC3C3C3C383838383000030D7
:105590007070717161E1E1E1E1F9FF3F0700E585BC
:1055A000AD00000000C0F0FC7EDFC78180800000FD
:1055B0000000003C3F3F737170E1E1E3F3FF3F1FE8
:1055C0000E00E4B88300000003070707070707C7BA
:1055D000F7FF7F1E0000000000000080E0FC7F1F3E
:1055E000070100000000E585AB0000001C1C3E7EAA
:1055F000FEE7E7E7FF7E3C0000000070787C7EEF6E
:10560000E7E3E1E3E77F7E3C1C00E4B99D00006036
:1056100078FCFECFC7878707E6FEFE3E0C00000041
:1056200000000001C1F3FF7F1F0300000000E695AA
:10563000B00090523410FF10345280708F0808F878
:105640000800829A566322528E008040330C334009
:105650008000E4BD990080804020504844C3444805
:105660005020408080000040221A0242827F0202C5
:10567000020A12600000E7839F00807000FF10089C
:10568000FE424242FA424242FE0080601807081081
:10569000FF50484641424C40FF00E99BBE00100CC1
:1056A000055555D5057F0555555505140C001010A9
:1056B000108AA96B352525ABE90810101000E68982
:1056C0008B0000002424242424FC222222232200F4
:1056D0000000020202020242827F02020202020271
:1056E0000200E887AA00000000F8888C8A89888870
:1056F00088F800000000000000FF44444444444493
:1057000044FF00000000E58AA8004044C44444442B
:10571000401010FF101010F00000103C131014B8CF
:1057200040300E014080403F0000E6A8A10010106C
:10573000D0FF9014E4AFA4A4A4AFE40400000403D9
:1057400000FF00894B2A1A0E1A2A4B888000E5BCFC
:105750008F00101090909090901010FF1010111664
:105760001000002060203F10101000030C1020409B
:10577000F80000000000FF01010131090909098951
:105780007101010101FFFF8080808080809681800F
:105790008080808080FFE8A180000000F80808F881
:1057A0000C0B08F80808F800000040407F40407FDC
:1057B0004040407F40407F404000E6B0A7000824C2
:1057C000236AAA2AAA6A2A2A2AEA020200001011D7
:1057D000151515FF15151511100F3040F800E5BF10
:1057E00083000000800000E00204180000004080F8
:1057F0000000100C0300003F404040404078000192
:105800000E00E78E87000014A4442434AD6624946F
:105810000444A414000008090808090909FD09093D
:105820000B0808090800E998880000F80122A0A2E6
:10583000A222FE22AA3202FE000000FF0010130A7C
:105840004B20170C133880FF0000E580BC0000805F
:1058500060F80704E4A4A4BFA4A4E40400000100C9
:1058600000FF40407F4A4A4A4A4A7F4040000000C9
:105870000000FF01010131090909098971010101D4
:1058800001FFFF8080808080809681808080808082
:1058900080FFFF01818181FD8991A1C1FD8181810D
:1058A00001FFFF808080809F888482819F8080802C
:1058B00080FF0000000000060F0FFFFFFF00000048
:1058C0000000000000000018187EFFFF1F0000000D
:1058D000000000000000000101FEFFFF00000000CA
:1058E000000000000000000000FFFF7F300000000B
:1058F00000000000000000000000000080E0F8FC54
:10590000FFFF3F0E0200000000000000000000004A
:10591000000000000000000080E0F8FEFF7F1F078D
:1059200081F0E0E0C0C0C080800000000000000006
:1059300000000000C0F0F8FEFFBF0F0701000000EC
:10594000010103030707070F0F9FDFFEFEFCFC3872
:1059500000000000010707070F0F0F1F1E3E3E3C0F
:105960007C7C78F8F0F8FCFE7F1F0F070301000035
:1059700000001F1C1F1E1F1E1F1F1E1F1E1F1F1D7E
:105980001F1E1F1E1F1F1E1F1E1F004040404040A5
:105990004040404041414141414040404040404002
:1059A000404040404040404040404005020202022A
:1059B0000202020202020202020202202020202031
:1059C00020202020200202020202020290909090E9
:1059D00090901010101010101010101010101010C7
:1059E000101010101010020202020202888888882B
:1059F0008888080808080808080808080808080827
:105A00000808080808080202020240008B59000832
:105A1000E5B7B4E6B395E4BA91E8BF9EE68EA5E794
:105A20008AB6E68081E5B7B2E6898BE58AA8E8AE5A
:105A3000BEE7BDAEE4B8BAEFBC9AE5B7B2E8BF9E28
:105A4000E68EA52028636F6E6E6563745F666C6179
:105A5000673D32290D0A00004C45440048756D69C8
:105A60005468726573686F6C6400000054656D70F3
:105A70005468726573686F6C6400000046756E0050
:105A800052656C6179000000E68C89E994AE313D85
:105A9000E8BF9EE68EA5E5B7B4E6B395E4BA9120DB
:105AA00020E68C89E994AE323DE69BB4E696B05789
:105AB000694669E78AB6E680812020E68C89E99408
:105AC000AE343DE4B88AE4BCA0E695B0E68DAE0DF8
:105AD0000A000000F45A0008000000202C01000019
